:020000040000fa
:080000000002040000000000f2
:020000040000fa
:040008007003000081
:020000040000fa
:04000c00700300007d
:020000040000fa
:040010007003000079
:020000040000fa
:040014007003000075
:020000040000fa
:040018007003000071
:020000040000fa
:04001c00700300006d
:020000040000fa
:040020007003000069
:020000040000fa
:040024007003000065
:020000040000fa
:040028007003000061
:020000040000fa
:04002c00700300005d
:020000040000fa
:040030007003000059
:020000040000fa
:0400340002030000c3
:020000040000fa
:040038007003000051
:020000040000fa
:04003c00700300004d
:020000040000fa
:040040007003000049
:020000040000fa
:040044007003000045
:020000040000fa
:04004800fa020000b8
:020000040000fa
:04004c00700300003d
:020000040000fa
:040050007003000039
:020000040000fa
:040054007003000035
:020000040000fa
:040058007003000031
:020000040000fa
:04005c004c03000051
:020000040000fa
:040060007003000029
:020000040000fa
:040064007003000025
:020000040000fa
:040068007003000021
:020000040000fa
:04006c00700300001d
:020000040000fa
:040070007003000019
:020000040000fa
:040074007003000015
:020000040000fa
:040078007003000011
:020000040000fa
:04007c00700300000d
:020000040000fa
:040080007003000009
:020000040000fa
:040084007003000005
:020000040000fa
:040088007003000001
:020000040000fa
:04008c0070030000fd
:020000040000fa
:0400900070030000f9
:020000040000fa
:040094002203000043
:020000040000fa
:0400980070030000f1
:020000040000fa
:04009c0070030000ed
:020000040000fa
:0400a00070030000e9
:020000040000fa
:0400a40070030000e5
:020000040000fa
:0400a80070030000e1
:020000040000fa
:0400ac0070030000dd
:020000040000fa
:0400b00070030000d9
:020000040000fa
:0400b40070030000d5
:020000040000fa
:0400b80070030000d1
:020000040000fa
:0400bc0070030000cd
:020000040000fa
:0400c00070030000c9
:020000040000fa
:0400c40070030000c5
:020000040000fa
:0400c80070030000c1
:020000040000fa
:0400cc0070030000bd
:020000040000fa
:0400d00070030000b9
:020000040000fa
:0400d40070030000b5
:020000040000fa
:0400d80070030000b1
:020000040000fa
:0400dc0070030000ad
:020000040000fa
:0400e00070030000a9
:020000040000fa
:0400e40070030000a5
:020000040000fa
:0400e80070030000a1
:020000040000fa
:0400ec00700300009d
:020000040000fa
:0400f0007003000099
:020000040000fa
:0400f4007003000095
:020000040000fa
:0400f8007003000091
:020000040000fa
:0400fc00700300008d
:020000040000fa
:040100007003000088
:020000040000fa
:040104007003000084
:020000040000fa
:040108007003000080
:020000040000fa
:04010c00700300007c
:020000040000fa
:040110007003000078
:020000040000fa
:040114007003000074
:020000040000fa
:040118007003000070
:020000040000fa
:04011c00700300006c
:020000040000fa
:040120007003000068
:020000040000fa
:040124007003000064
:020000040000fa
:040128007003000060
:020000040000fa
:04012c00700300005c
:020000040000fa
:040130007003000058
:020000040000fa
:040134007003000054
:020000040000fa
:040138007003000050
:020000040000fa
:04013c00700300004c
:020000040000fa
:040140007003000048
:020000040000fa
:040144007003000044
:020000040000fa
:040148007003000040
:020000040000fa
:04014c00700300003c
:020000040000fa
:040150007003000038
:020000040000fa
:040154007003000034
:020000040000fa
:040158007003000030
:020000040000fa
:04015c00700300002c
:020000040000fa
:040160007003000028
:020000040000fa
:040164007003000024
:020000040000fa
:040168007003000020
:020000040000fa
:04016c00700300001c
:020000040000fa
:040170007003000018
:020000040000fa
:040174007003000014
:020000040000fa
:040178007003000010
:020000040000fa
:04017c00700300000c
:020000040000fa
:040180007003000008
:020000040000fa
:040184007003000004
:020000040000fa
:040188007003000000
:020000040000fa
:04018c0070030000fc
:020000040000fa
:0401900070030000f8
:020000040000fa
:0401940070030000f4
:020000040000fa
:0401980070030000f0
:020000040000fa
:04019c0070030000ec
:020000040000fa
:0401a00070030000e8
:020000040000fa
:0401a40070030000e4
:020000040000fa
:0401a80070030000e0
:020000040000fa
:0401ac0070030000dc
:020000040000fa
:0401b00070030000d8
:020000040000fa
:0401b40070030000d4
:020000040000fa
:0401b80070030000d0
:020000040000fa
:0401bc0070030000cc
:020000040000fa
:0401c00070030000c8
:020000040000fa
:0401c40070030000c4
:020000040000fa
:0401c80070030000c0
:020000040000fa
:0401cc0070030000bc
:020000040000fa
:0401d00070030000b8
:020000040000fa
:0401d40070030000b4
:020000040000fa
:0401d80070030000b0
:020000040000fa
:0401dc0070030000ac
:020000040000fa
:0401e00070030000a8
:020000040000fa
:0401e40070030000a4
:020000040000fa
:0401e80070030000a0
:020000040000fa
:0401ec00700300009c
:020000040000fa
:0401f0007003000098
:020000040000fa
:0401f4007003000094
:020000040000fa
:0401f8007003000090
:020000040000fa
:0401fc00700300008c
:020000040000fa
:040200007003000087
:020000040000fa
:040204007003000083
:020000040000fa
:04020800700300007f
:020000040000fa
:04020c00700300007b
:020000040000fa
:040210007003000077
:020000040000fa
:040214007003000073
:020000040000fa
:04021800700300006f
:020000040000fa
:04021c00700300006b
:020000040000fa
:040220007003000067
:020000040000fa
:040224007003000063
:020000040000fa
:04022800700300005f
:020000040000fa
:04022c00700300005b
:020000040000fa
:040230007003000057
:020000040000fa
:040234007003000053
:020000040000fa
:04023800700300004f
:020000040000fa
:04023c00700300004b
:020000040000fa
:040240007003000047
:020000040000fa
:040244007003000043
:020000040000fa
:04024800700300003f
:020000040000fa
:04024c00700300003b
:020000040000fa
:040250007003000037
:020000040000fa
:040254007003000033
:020000040000fa
:04025800700300002f
:020000040000fa
:04025c00700300002b
:020000040000fa
:040260007003000027
:020000040000fa
:040264007003000023
:020000040000fa
:04026800700300001f
:020000040000fa
:04026c00700300001b
:020000040000fa
:040270007003000017
:020000040000fa
:040274007003000013
:020000040000fa
:04027800700300000f
:020000040000fa
:04027c00700300000b
:020000040000fa
:040280007003000007
:020000040000fa
:100400008f0421000eff2c000e0188000000000068
:10041000000020000000e000020032000001200087
:100420002002880014000700af0007000000e00071
:1004300003003a00002421000100200002003700e0
:100440000000200001002000810f70000100320038
:100450000f000700000020000000e0000200320052
:10046000000002000000000002070200000000007f
:100470000040da000000fe00200020000000e00044
:1004800002003200100020009001880000000600e9
:10049000a1028800800478000000eb001f003700f4
:1004a000e284440054a0b4009905ba00e2844400f8
:1004b00054a0b4009906ba00e284440054a0b400e9
:1004c0000006eb00476fde00fd07b200ae018800ba
:1004d000636ce10003003a000ad801000000eb0061
:1004e0000e003700606ce10008003a00004deb00a0
:1004f0000a05e800020039003420ec000af0a000f0
:100500008b05e900f9ff3e00040037006168e10057
:10051000010032000086eb000b00070019c7ba008b
:100520000e04e0001905ba0003003a000a00e000da
:10053000dbff3a0000000600fe07b200ae028800b2
:100540008a047800f5ff37000cd0a300e20f4d00bd
:100550001c00390089027800354dba000a05e80010
:10056000020039003420ec000af0a0008b05e900fd
:100570000f003200254dba000a05e80002003900dc
:100580003420ec000af0a0008b05e90008003200de
:100590000c00e0000600320015cdba000a05e800a4
:1005a000020039003420ec000af0a0008b05e900bd
:1005b0008984e80054a0b4000b00e000e2ff3a0098
:1005c000000006009902ba00055d78008b05e9007d
:1005d000f7ff3200c82ade00055d78008b05e900d0
:1005e000f3ff32000c00e000f1ff320019ddba0029
:1005f000eeff37000000fa000108a9000080fa00b1
:10060000004006003600f800809fbe00829fbe00ba
:10061000849fbe00869fbe000000fa000068a9000b
:10062000de0507005b0707000080fa004f03be00ed
:100630004f02be004f01be004f00be003600f90061
:10064000004006003600f800809fbe00829fbe007a
:10065000849fbe00869fbe000000fa000368a900c8
:10066000608080007180800061004000e080480070
:100670006080880071808800bb0207000080fa005b
:100680004f03be004f02be004f01be004f00be0030
:100690003600f90000400600801f78000000fa00d4
:1006a00001a8a90000188000f081880010188000bf
:1006b0000082880020188000108288003018800096
:1006c00020828800401880003082880010c0b3006b
:1006d00017f0b7000080fa004f00780000400600d5
:1006e0000040da000000fe000000050003f0a20058
:1006f000889fbe008a9fbe008c1f78001b010700e8
:10070000220133006450e1004f0032006420e10018
:100710005200320003826c0007003b000905d00044
:100720000306d000820f54000c065d000200390061
:1007300002003200890178000306780085825500a6
:1007400004003d000003fd008103fd008502ea0076
:100750008b854200840f720002003b006000100095
:10076000e08018006011b8000005eb007a28e10075
:100770000a00390006007800c75ddd00f707b20007
:10078000878075002d003700828171000a01780092
:10079000610560008180d1000080d3008502e900fe
:1007a000f9ff3b00060440008784480002003b003c
:1007b00060041400e0841c000988a30007003200d4
:1007c0008a81710082817100610164008904d10015
:1007d0000884d3008b05e800170037000978a300d0
:1007e00013003a000b00e000130034008b05e90011
:1007f0000804440089844c000a4474000978a3006a
:100800000d003a000b00e000070034008b05e90002
:100810000804440089844c0001003a000b002000c9
:100820000978a300f7ff32000001eb000200370057
:10083000828171000a017800910007000cf0a70086
:1008400001f0a000da0037006420e10002003a0065
:10085000838f6c00da0033000801be000200be0086
:10086000d3003700889fbe008a9fbe008c1f78008f
:10087000be000700c500330003866c006450e10031
:100880002e0032006420e100330032006150e100ac
:100890002f0032006120e1003100320085855500d3
:1008a000eb07b00009002000080420000500370015
:1008b0000804440089844c000a0031000603430008
:1008c00087834b000001530081815b00f8ff3300f8
:1008d0000203be000800a0000804440089844c0004
:1008e000f6ff3900c639dd008301730001003200d4
:1008f000130020008904d1000884d3000998a300c4
:10090000050032000800a7000300a0008904d10000
:100910000884d3008b05e8008904d1000884d30043
:100920000001eb000281d2005500070001f0a10098
:100930000cf0a70001f0a0009d0037006420e1004a
:100940009f0032000801be000200be00f7ff370022
:100950006120e1009a0032006000b800f3ff370028
:100960000000200001f82700f0ff370014002000ed
:10097000ca003700f4ff2f00c80037000001be0096
:10098000650007000470a70003f0a1006509b1002d
:10099000160032000d0035006828e1000600350021
:1009a000f0ff2f00f1ff27000300e00013003b00e1
:1009b0000100280000000500000040008180480080
:1009c0008502e900fcff3a0008003700f88f42007a
:1009d00002003c008000eb00000005008100d10017
:1009e0000080d3008502e800fcff3a000300e0002d
:1009f00002003b0060001000e080180000000600cc
:100a00000001be00440007000470a70003f0a1002d
:100a100003f8a30013003a006509b100100032008a
:100a2000090035006928e1000200350001002800b6
:100a30000000050000004000818048008502e900b8
:100a4000fcff3a0000000600f88f42000500350068
:100a50008100d1000080d3008502e800fcff3a004d
:100a6000000006008000eb00000005004f89de005a
:100a700082017800a40037006011b800b20037008e
:100a800081002000618055000b003d000b0020001c
:100a900061fe2f000100e1001d0034008281710021
:100aa000610164008904d1000884d3000000e800db
:100ab000faff3a007100200061006400030070003a
:100ac000020060000900320061044400e0844c0030
:100ad0000988a500050032008b05e8006808e100e0
:100ae00002003a008904d1000884d300f20f2000ec
:100af0000258e10005003d00c75ddd00f907b200c6
:100b00008980750008007800000006000bf82700b7
:100b10008b00780000000500c70ade00f107b20074
:100b2000f50fb20008003200e1cf420002003200af
:100b30000170a00024000500810f70000100320048
:100b40000408050044000500810f700002003a000f
:100b5000140005008502e9000000400081c0480043
:100b6000fcff3b000170a000240005000004be0053
:100b7000e9ff07000003be000405be000200be003e
:100b8000e5ff0700844f7500000006000200be006c
:100b90006450e100050036006420e10002003600e8
:100ba0000968a30001003a000800be000160a0002f
:100bb0004f0678004f05be004f04be00000006003f
:100bc000f0ff2f00f1ff2700f9ff3700889fbe00dc
:100bd0008a9fbe008c1f7800e4ff0700ebff330004
:100be00003866c006450e100240032006420e100c0
:100bf000270032006150e100220032006120e10054
:100c0000210032008b854200eb07b1000134b800af
:100c1000003ab8000804420089844a00013ab8004a
:100c20000030b8008880400009014a000400330009
:100c30000000400081804800020149008b05e90066
:100c4000c909dd008301700001003200130020009b
:100c5000c814de004814dd004709de001200b200af
:100c6000c808de000884700085ff070001f0a100bd
:100c70000cf0a70001f0a000cdff37006120e100db
:100c8000cfff32000801be000200be00f7ff3700b0
:100c90006150e100fcff3a00c9ff3700889fbe00a9
:100ca0008a9fbe00841f7800b0ff07004f007800c5
:100cb00011003300f0ff2f00838f6c0006003b0013
:100cc000040565000a00a7000800370009f0a60027
:100cd0001000200008003700820f5400838f5c0052
:100ce000030039001000200001003e000000200039
:100cf00009f0a7000000ea004f05be004f04be0047
:100d00000000e00000000600881f7800030478005f
:100d10000300e00007003d0060001000e0801800c4
:100d200060011900e081190002003b0001f02d0074
:100d3000030037000400070008f0a70001f0a0003e
:100d40004f04780000000600889fbe008a9fbe0006
:100d500000827000040271000482710026003200db
:100d60000004be000200be006011b8006b09200044
:100d7000950220000182cf000a0039000541b10030
:100d80000082cf00070039000541b1000982cf0081
:100d9000040039000541b1000882cf00010039008c
:100da0000541b10005425200120032000a003b002a
:100db00082817100610164008100d1000080d30054
:100dc0008984d3000884d3008b05e8000442e8003e
:100dd000f7ff3a00070037000804440089844c00fc
:100de00000004800818048008b05e9000442e900ca
:100df000f9ff3a0022ff07004f05be004f04be0076
:040e000000000600e8
:020000040000fa
:100e04000600fa00881f780071050700b605070080
:100e140000002000a1372400c3020700a902070034
:100e240000002000a1472400cb020700be030700f6
:100e34001d05070064cea90064eea900254ea90093
:100e4400010037000000000059050700e14f500081
:100e5400fcff3a005a05070051050700000f78000f
:100e64001e80e800100078008000eb0001ff0700fe
:100e7400323323003305240053ff0700020020000f
:100e84000358240076fe0700d2cc2c00c3042400af
:100e94004dff070010079800210798001e019000dd
:100ea400ae01900000002000812024006cfe0700a9
:100eb40002002000030a24000bfe07005081880072
:100ec400618188009e0078006480400010007800f2
:100ed4008000eb00e7fe07003233230033052400d3
:100ee40039ff070002002000035824005cfe0700bd
:100ef400d2cc2c00c304240033ff07001007980051
:100f0400210798001e019000ae019000000020000f
:100f14008120240052fe070002002000030a24005e
:100f2400f1fd070070818800818188009e007800af
:100f340068804000100078008000eb00cdfe0700c0
:100f440032332300330524001fff07000200200072
:100f54000358240042fe0700d2cc2c00c304240012
:100f640019ff070010079800210798001e01900040
:100f7400ae019000000020008120240038fe07000c
:100f840002002000030a2400d7fd07009081880096
:100f9400a18188009e0078006680400010007800df
:100fa4008000eb00b3fe0700323323003305240036
:100fb40005ff0700020020000358240028fe070054
:100fc400d2cc2c00c3042400fffe070010079800b5
:100fd400210798001e019000ae019000000020003f
:100fe400812024001efe070002002000030a2400c2
:100ff400bdfd0700b0818800c18188001e00780013
:10100400100078008000eb009afe070032332300c2
:1010140033052400ecfe07000200200003582400de
:101024000ffe0700d2cc2c00c3042400e6fe070008
:1010340010079800210798001e019000ae0190004f
:10104400000020008120240005fe0700020020008b
:10105400030a2400a4fd0700d0818800e1818800f0
:10106400508180006181800018c0b300020020001c
:10107400031f24003cfe07000000e00001003500cf
:101084000044eb000804e0000b003a00d08180002b
:10109400e181800018c0b30002002000031f240077
:1010a40031fe07000000e000010035000044eb00c1
:1010b4000804e00002003200254ea80001003700b9
:1010c400254ea900708180008181800018c0b30082
:1010d40002002000031f240023fe07000000e0009c
:1010e400010035000044eb000804e0000200320077
:1010f40064eea8000100370064eea900908180002e
:10110400a181800018c0b30002002000031f240046
:1011140015fe07000000e000010035000044eb006c
:101124000804e0000b003a00b0818000c181800017
:1011340018c0b30002002000031f24000afe0700a9
:101144000000e000010035000044eb000804e0006a
:101154000200320064cea8003bff370064cea90031
:1011640039ff37000000fa0012d0bf000080fb00f6
:10117400cf80de00b200200003002000820f500068
:10118400838f58006e003e00000601000b003700fc
:10119400140037001d0037002700370028003700ef
:1011a40031003700320037003b0037003c00370085
:1011b4004d0037004e0037005f0037000c30ef0061
:1011c4000e30ef00120020006000b8009d030700fd
:1011d4000001eb006000b8009a03070010c0b300e0
:1011e40012f0b7006280800073808000803e20008f
:1011f40001002000800f5100818f590053003600f8
:1012040020c0b30012f0b700510037000080800006
:1012140011808000120020008a03070000808000f3
:10122400118080000001eb008603070030c0b3008a
:1012340012f0b700460037004700070044003700ab
:101244000080800011808000120020007d030700d0
:101254000001eb006000b8007a03070050c0b3003f
:1012640012f0b7003a0037003b000700380037009f
:10127400120020006000b8007203070000808000a4
:10128400118080000001eb006e03070070c0b30002
:1012940012f0b7002e0037002f0007002c00370093
:1012a40020808000318080000200200003002400a0
:1012b4006bfd0700120020006203070020808000fd
:1012c4003180800001f0a20002002000030024000d
:1012d40063fd07000001eb005a03070090c0b30050
:1012e40012f0b7001a0037001b000700180037007f
:1012f400208080003180800001f0a20002002000e4
:101304000300240056fd0700120020004d030700cf
:10131400208080003180800002002000030024002f
:101324004ffd07000001eb0046030700b0c0b30007
:1013340012f0b7000600370007000700040037006a
:101344001270ef00000000000100370000000000f0
:101354000080fa00000006000600fa00881f7800ea
:101364000040eb00004f78005481800065818000cc
:10137400408080005180800018c0b3000001be008e
:101384000400be0078fd07000000e0000100350005
:101394000044eb000804e0001d003200748180006a
:1013a40085818000408080005180800018c0b30097
:1013b4000001be000400be006dfd07000000e00057
:1013c40001003c000044eb000804e000100032007f
:1013d40094818000a581800040808000518080003d
:1013e40018c0b3000001be000400be0060fd070089
:1013f4000000e00001003c000044eb000804e000b1
:101404000300320020c0b300004f7800eb00370027
:1014140094818000a58180004080800051808000fc
:1014240018c0b3000001be000400be004efd07005a
:101434000000e000010035000044eb000804e00077
:101444001d0032007481800085818000408080000e
:101454005180800018c0b3000001be000400be002b
:1014640043fd07000000e00001003c000044eb00e5
:101474000804e0001000320054818000658180007f
:10148400408080005180800018c0b3000001be007d
:101494000400be0036fd07000000e00001003c002f
:1014a4000044eb000804e0000300320010c0b30065
:1014b400004f7800c100370074818000858180006e
:1014c400408080005180800018c0b3000001be003d
:1014d4000400be0024fd07000000e0000100350008
:1014e4000044eb000804e0000300320030c0b30005
:1014f400004f7800b1003700d4818000e58180007e
:10150400408080005180800018c0b3000001be00fc
:101514000400be0014fd07000000e00001003500d7
:101524000044eb000804e0002a00320054818000eb
:1015340065818000408080005180800018c0b30025
:101544000001be000400be0009fd07000000e00029
:1015540001003c000044eb000804e0001d003200e0
:1015640074818000858180004080800051808000eb
:1015740018c0b3000001be000400be00fcfc07005c
:101584000000e00001003c000044eb000804e0001f
:101594001000320094818000a5818000408080008a
:1015a4005180800018c0b3000001be000400be00da
:1015b400effc07000000e00001003c000044eb00e9
:1015c4000804e0000300320040c0b300004f78007c
:1015d4007a003700b4818000c5818000408080009b
:1015e4005180800018c0b3000001be000400be009a
:1015f400ddfc07000000e000010035000044eb00c2
:101604000804e0002a00320094818000a581800053
:10161400408080005180800018c0b3000001be00eb
:101624000400be00d2fc07000000e00001003c0002
:101634000044eb000804e0001d00320074818000c7
:1016440085818000408080005180800018c0b300f4
:101654000001be000400be00c5fc07000000e0005d
:1016640001003c000044eb000804e00010003200dc
:10167400548180006581800040808000518080001a
:1016840018c0b3000001be000400be00b8fc07008f
:101694000000e00001003c000044eb000804e0000e
:1016a4000300320050c0b300004f780043003700fd
:1016b40054818000658180004080800051808000da
:1016c40018c0b3000001be000400be00a8fc07005f
:1016d4000000e00001003c000044eb000804e000ce
:1016e40036003200d4818000e58180004080800093
:1016f4005180800018c0b3000001be000400be0089
:101704009bfc07000000e00001003c000044eb00eb
:101714000804e00029003200b4818000c581800003
:10172400408080005180800018c0b3000001be00da
:101734000400be008efc07000000e00001003c0035
:101744000044eb000804e0001c00320074818000b7
:1017540085818000408080005180800018c0b300e3
:101764000001be000400be0081fc07000000e00090
:1017740001003c000044eb000804e0000f003200cc
:1017840094818000a5818000408080005180800089
:1017940018c0b3000001be000400be0074fc0700c2
:1017a4000000e00001003c000044eb000804e000fd
:1017b400020032000040eb00004f78006000b800e7
:1017c40010079800210798001e4078000004e000ec
:1017d40003003a0020c0b30013f0b7002d00370017
:1017e4001e407800e24f500003003a0080c0b3006e
:1017f40013f0b700270037001e407800e14f500077
:1018040003003a00a0c0b30013f0b7002100370072
:101814001e407800e34f500013003a006011b800f6
:101824001e009000ae0090004ffc07000000e00096
:1018340007003a0080c0b30013f0b7000000200096
:1018440001f82300100798002107980011003700c1
:10185400a0c0b30013f0b7006000b80010079800f0
:10186400210798000b0037001e407800e44f500019
:1018740003003a0040c0b30013f0b700050037007e
:101884001e407800e54f500002003a0060c0b300eb
:1018940013f0b70013d0bf008080fb0012d0bf004c
:1018a4000080fb000000e900808f5000020032003d
:1018b40013d0bf0012f0b7004f0478000080fa0084
:1018c400000006000000fa0013e1a90011e1a900dc
:1018d4001061a8001021a90081088000f0fc2f00ed
:1018e40000806000800888000a21ef000621ef00d4
:1018f400202620007008880000a0250060088800c9
:101904002142800080ff2f00008060000000a000c2
:10191400204288000108a9002108a80011e1a800bc
:101924000080fa00000006000400fa00008fbe00e8
:1019340005e1a9000421a9001e0078009e00900082
:10194400110007000068a9002068a80005e1a800ac
:101954000080fa00000006000400fa00008fbe00b8
:101964001fe1a9001e21a9001e0078009e0090001e
:10197400790007000368a9002368a8001fe1a800f4
:101984000080fa00000006000400fa00881f7800b6
:10199400008fbe0021088000f0fc2f000080600052
:1019a400200888001e0178009e019000006829002c
:1019b40081c12400aafb070018c0b30002f02f0065
:1019c400f3772400eafb07000000e00001003c007c
:1019d4000044eb000804e0005400320021088000b9
:1019e400f0fc2f00008060000040a0002008880068
:1019f4001e0178009e0190000068290081c1240026
:101a040097fb0700020020000310240094fb07004a
:101a140018c0b30002f02f00f3772400d4fb0700b2
:101a24000000e00001003c000044eb000804e0007a
:101a34003200320021088000f0fc2f00008060009a
:101a44000050a000200888001e0178009e0190002c
:101a54000068290081c1240081fb070002002000e6
:101a6400032824007efb070018c0b30002f02f00f7
:101a7400f3772400befb07000000e00001003c00f7
:101a84000044eb000804e00010003200210880004c
:101a94000003200001007000200888001e01780067
:101aa4009e0190000068290081c124006cfb07009e
:101ab400020020000338240069fb0700aefb070086
:101ac4000000780010088800200037001e0178000c
:101ad4009e0190000068290081c1240060fb07007a
:101ae40002002000032824005dfb0700a2fb07007e
:101af4000000780010088800140037001e017800e8
:101b04009e0190000068290081c1240054fb070055
:101b1400020020000310240051fb070096fb07007d
:101b24000000780010088800080037001e017800c3
:101b34009e0190000068290081c1240048fb070031
:101b44008dfb070000007800100888004f0478001f
:101b54000080fa00000006000400fa00881f7800e4
:101b6400008fbe00f1088000f0fc2f0000806000b0
:101b7400f00888001e0178009e019000006829008a
:101b840081c1240036fb070018c0b30002f02f0007
:101b9400f377240076fb07000000e00001003c001e
:101ba4000044eb000804e00054003200f108800017
:101bb400f0fc2f00008060000040a000f0088800c6
:101bc4001e0178009e0190000068290081c1240054
:101bd40023fb0700020020000310240020fb070061
:101be40018c0b30002f02f00f377240060fb070055
:101bf4000000e00001003c000044eb000804e000a9
:101c040032003200f1088000f0fc2f0000806000f8
:101c14000050a000f00888001e0178009e0190008a
:101c24000068290081c124000dfb07000200200088
:101c3400032824000afb070018c0b30002f02f0099
:101c4400f37724004afb07000000e00001003c0099
:101c54000044eb000804e00010003200f1088000aa
:101c64000003200001007000f00888001e017800c5
:101c74009e0190000068290081c12400f8fa070041
:101c84000200200003382400f5fa07003afb07009d
:101c940000007800d0088800200037001e0178007a
:101ca4009e0190000068290081c12400ecfa07001d
:101cb4000200200003282400e9fa07002efb070095
:101cc40000007800d0088800140037001e01780056
:101cd4009e0190000068290081c12400e0fa0700f9
:101ce4000200200003102400ddfa070022fb070095
:101cf40000007800d0088800080037001e01780032
:101d04009e0190000068290081c12400d4fa0700d4
:101d140019fb070000007800d00888004f04780001
:101d24000080fa00000006000000fa001160800044
:101d340080ff2f00008060001060880000fa2000ff
:101d44002060880023aca800238ca80011618000c7
:101d5400f03f2f000080600000a0a0001061880008
:101d64003000200020618800c3aca800c38ca80008
:101d740011668000f03f2f000080600000a0a000ea
:101d840010668800300020002066880001eca8005e
:101d94000080fa00000006000000fa00889fbe00e0
:101da4008a9fbe00348180004581800010818000bc
:101db4002181800018c0b3000001be000400be00f1
:101dc400e9fa07000000e000010035000044eb00e0
:101dd4000804e0000f00320018818000298180008f
:101de4003a8180004b81800014d0bf000080fb004a
:101df400cf80de001cfb07000001be000a00be000d
:101e04003afa07000801be00ce00070030818800be
:101e140041818800348180004581800010818000e8
:101e24002181800018c0b3000001be000400be0080
:101e3400cffa07000000e00001003c000044eb0082
:101e44000804e0000f00320018818000298180001e
:101e54003a8180004b81800014d0bf000080fb00d9
:101e6400cf80de0000fb07000001be000a00be00b8
:101e74001dfa07000801be009a000700308188009f
:101e840041818800308180004181800018c0b30006
:101e94006011b800b6fa07000000e00001003c0041
:101ea4000044eb000804e00004003200c3cca900a5
:101eb40024eea800c3eca80003003700c3eca9007b
:101ec40024cea800c3cca8003081800041818000ca
:101ed4006e00070002002000032224003afb0700e2
:101ee400c6fa07000000780030668800f48080009d
:101ef40005818000d0808000e180800018c0b3009c
:101f04000001be000400be0097fa07000000e000d4
:101f1400010035000044eb000804e0000f0032002b
:101f2400d8808000e9808000fa8080000b818000e6
:101f340014d0bf000080fb00cf80de00cafa070087
:101f44000001be000a00be00e8f907000801be0057
:101f54007c000700f080880001818800f480800004
:101f640005818000d0808000e180800018c0b3002b
:101f74000001be000400be007dfa07000000e0007e
:101f840001003c000044eb000804e0000f003200b4
:101f9400d8808000e9808000fa8080000b81800076
:101fa40014d0bf000080fb00cf80de00aefa070033
:101fb4000001be000a00be00cbf907000801be0004
:101fc40048000700f080880001818800f0808000cc
:101fd4000181800018c0b3006011b80064fa0700e2
:101fe4000000e00001003c000044eb000804e000b5
:101ff4000400320023cca90015eea80023eca800ad
:102004000300370023eca90015cea80023cca800b8
:10201400f0808000018180001c0007000200200085
:1020240003222400e8fa070074fa0700000078008d
:10203400306188004f05be004f04be000080fa00e6
:10204400000006000600fa00008fbe002207980078
:102054002e0090000000e00005003a001e01780008
:102064009e019000d2808800e3808800050037003c
:102074001e0078009e00900001f0a20010818800ec
:10208400218188000080fa00000006000400fa00a4
:10209400881f7800008fbe0018c0b3006011b8001c
:1020a4001e0078009e00900031fa07000000e00056
:1020b40001003d000044eb000804e000030032008e
:1020c4001e0078009e009000030037001e00780078
:1020d4009e00900001f0a2004f0478000080fa00f6
:1020e400000006000800fa00881f7800008fbe0078
:1020f400220798003307980018c0b3002e019000ff
:10210400be0190001e0078009e00900018fa07009f
:102114000000e00001003c000044eb000804e00083
:10212400030032001e0078009e0090000200370079
:102134002e009000be0090004f0478000080fa004a
:10214400000006000800fa00881f7800008fbe0017
:10215400220798003307980018c0b3002e0190009e
:10216400be0190001e0078009e009000fef907005a
:102174000000e000010035000044eb000804e0002a
:10218400030032001e0078009e0090000200370019
:102194002e009000be0090004f0478000080fa00ea
:1021a400000006000c00fa00881f7800008fbe00b3
:1021b40022079800330798004407980055079800b1
:1021c40018c0b3004e019000de0190001e0078009c
:1021d4009e009000e6f907000000e00001003c00ca
:1021e4000044eb000804e000040032004e019000bb
:1021f400de019000028fbe000e00370018c0b3004d
:102204002e019000be0190001e0078009e009000f8
:10221400d5f907000000e000010035000044eb00a0
:102224000804e000030032002e019000be0190007b
:10223400028fbe001e0078009e0090004f047800bc
:102244000080fa00000006000400fa00008fbe00bf
:10225400b2fd2000930424001e0078009e0090002c
:102264007ff90700020020004333240056fa0700d8
:102274000080fa00000006000400fa00008fbe008f
:10228400b2fd2000930424001e0078009e009000fc
:102294004dfa0700020020004333240070f90700c0
:1022a4000080fa00000006000000fa0021e3a90003
:1022b4002143a80001198000f0cf2f0000806000a6
:1022c400001988002043a90001198000000e200095
:1022d400010070000019880011198000f0ff21002e
:1022e40000806000101988002343a80011198000a1
:1022f400f0cf2f00008060001019880011198000b1
:1023040030f82f00008060000040a0001019880001
:102314002203a9002223a90025e3a900f0c0b300e9
:1023240024e3b70021198000f00f2e0080806000a4
:1023340000f0200001007000201988003303a90078
:102344001e2ea8002e0ea8002f6ea8004feea80087
:102354006f2ea80030c3a8003163a8003063a80022
:102364002e03a80031e3a8004119800000fc2f00cf
:10237400008060004019880028e3a90001a8a90092
:1023840021a8a80021e3a8000080fa0000000600ac
:102394000000fa002023a8000080fa0000000600d4
:1023a4000000fa00e00321000080fa0000000600ab
:1023b4000000fa0017d0bf000080fa0000000600f9
:1023c4000000fa001770ef000080fa000000060019
:1023d4000000fa00f0032000303a8800213a80001f
:1023e400f0f32f0000806000203a8800213a80003a
:1023f40000fe2f00008060000000a000203a88004a
:102404001200200080072000a1092000337420005e
:10241400804978008149780082497800103a800028
:10242400000178000200a000600420007105200073
:10243400237420008049780081497800824978001b
:1024440000000000113a8000000027008080600036
:1024540000002100808f5000faff3a0000000000c5
:10246400113a800000022000008060000000e000bb
:0c247400fbff32000080fa0000000600b0
:020000040000fa
:102480001210000002000000800000000010000098
:102490000c000000820000000000c80041000000a5
:1024a000c841000000f041000c10000006000000d0
:1024b00080000000181000002600000080000000ce
:1024c000141000000200000082000000050000005f
:1024d0003e1000000a0000008000000016100000fe
:0c24e0000200000080000000000000006e
:020000040000fa
:1024ec000000fa000e2eef001e2eef002e2eef0035
:1024fc003e2eef004e2eef005e2eef006e2eef0004
:10250c00214ea90060cea90060eea90011cea90051
:10251c0011eea90020cea90020eea900200ea800e3
:10252c00216ea800612ea800102ea80041eea80074
:08253c000080fa000000060017
:020000040000fa
:02000004000af0
:04afe000cfff00009f
:020000040000fa
:02000004000af0
:04afe400ffff00006b
:020000040000fa
:02000004000af0
:04afe8007fff0000e7
:020000040000fa
:02000004000af0
:04afec005fff000003
:020000040000fa
:02000004000af0
:04aff00038ff000026
:020000040000fa
:02000004000af0
:04aff400ffff00005b
:00000001FF
