:020000040000fa
:080000000002040000000000f2
:020000040000fa
:04000800de03000013
:020000040000fa
:04000c00de0300000f
:020000040000fa
:04001000de0300000b
:020000040000fa
:04001400de03000007
:020000040000fa
:04001800de03000003
:020000040000fa
:04001c00de030000ff
:020000040000fa
:04002000de030000fb
:020000040000fa
:04002400de030000f7
:020000040000fa
:04002800de030000f3
:020000040000fa
:04002c00de030000ef
:020000040000fa
:04003000de030000eb
:020000040000fa
:0400340002030000c3
:020000040000fa
:04003800de030000e3
:020000040000fa
:04003c00de030000df
:020000040000fa
:04004000de030000db
:020000040000fa
:04004400de030000d7
:020000040000fa
:04004800fa020000b8
:020000040000fa
:04004c00de030000cf
:020000040000fa
:04005000de030000cb
:020000040000fa
:040054009a0300000b
:020000040000fa
:040058007003000031
:020000040000fa
:04005c004c03000051
:020000040000fa
:04006000de030000bb
:020000040000fa
:04006400de030000b7
:020000040000fa
:04006800de030000b3
:020000040000fa
:04006c00de030000af
:020000040000fa
:04007000de030000ab
:020000040000fa
:04007400de030000a7
:020000040000fa
:04007800de030000a3
:020000040000fa
:04007c00de0300009f
:020000040000fa
:04008000de0300009b
:020000040000fa
:04008400de03000097
:020000040000fa
:04008800de03000093
:020000040000fa
:04008c00de0300008f
:020000040000fa
:04009000de0300008b
:020000040000fa
:040094002203000043
:020000040000fa
:04009800de03000083
:020000040000fa
:04009c00de0300007f
:020000040000fa
:0400a000de0300007b
:020000040000fa
:0400a400de03000077
:020000040000fa
:0400a800de03000073
:020000040000fa
:0400ac00de0300006f
:020000040000fa
:0400b000de0300006b
:020000040000fa
:0400b400de03000067
:020000040000fa
:0400b800de03000063
:020000040000fa
:0400bc00de0300005f
:020000040000fa
:0400c000de0300005b
:020000040000fa
:0400c400de03000057
:020000040000fa
:0400c800de03000053
:020000040000fa
:0400cc00de0300004f
:020000040000fa
:0400d000de0300004b
:020000040000fa
:0400d400de03000047
:020000040000fa
:0400d800de03000043
:020000040000fa
:0400dc00de0300003f
:020000040000fa
:0400e000de0300003b
:020000040000fa
:0400e400de03000037
:020000040000fa
:0400e800de03000033
:020000040000fa
:0400ec00de0300002f
:020000040000fa
:0400f000de0300002b
:020000040000fa
:0400f400de03000027
:020000040000fa
:0400f800de03000023
:020000040000fa
:0400fc00de0300001f
:020000040000fa
:04010000de0300001a
:020000040000fa
:04010400de03000016
:020000040000fa
:04010800de03000012
:020000040000fa
:04010c00de0300000e
:020000040000fa
:04011000de0300000a
:020000040000fa
:04011400de03000006
:020000040000fa
:04011800de03000002
:020000040000fa
:04011c00de030000fe
:020000040000fa
:04012000de030000fa
:020000040000fa
:04012400de030000f6
:020000040000fa
:04012800de030000f2
:020000040000fa
:04012c00de030000ee
:020000040000fa
:04013000de030000ea
:020000040000fa
:04013400de030000e6
:020000040000fa
:04013800de030000e2
:020000040000fa
:04013c00de030000de
:020000040000fa
:04014000de030000da
:020000040000fa
:04014400de030000d6
:020000040000fa
:04014800de030000d2
:020000040000fa
:04014c00de030000ce
:020000040000fa
:04015000de030000ca
:020000040000fa
:04015400de030000c6
:020000040000fa
:04015800de030000c2
:020000040000fa
:04015c00de030000be
:020000040000fa
:04016000de030000ba
:020000040000fa
:04016400de030000b6
:020000040000fa
:04016800de030000b2
:020000040000fa
:04016c00de030000ae
:020000040000fa
:04017000de030000aa
:020000040000fa
:04017400de030000a6
:020000040000fa
:04017800de030000a2
:020000040000fa
:04017c00de0300009e
:020000040000fa
:04018000de0300009a
:020000040000fa
:04018400de03000096
:020000040000fa
:04018800de03000092
:020000040000fa
:04018c00de0300008e
:020000040000fa
:04019000de0300008a
:020000040000fa
:04019400de03000086
:020000040000fa
:04019800de03000082
:020000040000fa
:04019c00de0300007e
:020000040000fa
:0401a000de0300007a
:020000040000fa
:0401a400de03000076
:020000040000fa
:0401a800de03000072
:020000040000fa
:0401ac00de0300006e
:020000040000fa
:0401b000de0300006a
:020000040000fa
:0401b400de03000066
:020000040000fa
:0401b800de03000062
:020000040000fa
:0401bc00de0300005e
:020000040000fa
:0401c000de0300005a
:020000040000fa
:0401c400de03000056
:020000040000fa
:0401c800de03000052
:020000040000fa
:0401cc00de0300004e
:020000040000fa
:0401d000de0300004a
:020000040000fa
:0401d400de03000046
:020000040000fa
:0401d800de03000042
:020000040000fa
:0401dc00de0300003e
:020000040000fa
:0401e000de0300003a
:020000040000fa
:0401e400de03000036
:020000040000fa
:0401e800de03000032
:020000040000fa
:0401ec00de0300002e
:020000040000fa
:0401f000de0300002a
:020000040000fa
:0401f400de03000026
:020000040000fa
:0401f800de03000022
:020000040000fa
:0401fc00de0300001e
:020000040000fa
:04020000de03000019
:020000040000fa
:04020400de03000015
:020000040000fa
:04020800de03000011
:020000040000fa
:04020c00de0300000d
:020000040000fa
:04021000de03000009
:020000040000fa
:04021400de03000005
:020000040000fa
:04021800de03000001
:020000040000fa
:04021c00de030000fd
:020000040000fa
:04022000de030000f9
:020000040000fa
:04022400de030000f5
:020000040000fa
:04022800de030000f1
:020000040000fa
:04022c00de030000ed
:020000040000fa
:04023000de030000e9
:020000040000fa
:04023400de030000e5
:020000040000fa
:04023800de030000e1
:020000040000fa
:04023c00de030000dd
:020000040000fa
:04024000de030000d9
:020000040000fa
:04024400de030000d5
:020000040000fa
:04024800de030000d1
:020000040000fa
:04024c00de030000cd
:020000040000fa
:04025000de030000c9
:020000040000fa
:04025400de030000c5
:020000040000fa
:04025800de030000c1
:020000040000fa
:04025c00de030000bd
:020000040000fa
:04026000de030000b9
:020000040000fa
:04026400de030000b5
:020000040000fa
:04026800de030000b1
:020000040000fa
:04026c00de030000ad
:020000040000fa
:04027000de030000a9
:020000040000fa
:04027400de030000a5
:020000040000fa
:04027800de030000a1
:020000040000fa
:04027c00de0300009d
:020000040000fa
:04028000de03000099
:020000040000fa
:10040000cf1521000eff27000e018800000000001c
:10041000000020000000e000020032000001200087
:100420002002880014000700e60007000000e0003a
:1004300003003a00804e2100010020000200370036
:100440000000200001002000810f70000100320038
:100450000f000700000020000000e0000200320052
:1004600000000200000000007c0702000000000005
:100470000040da000000fe00c00020000000e000a4
:1004800002003200002020009001880000000600d9
:10049000a1028800800478000000eb001f003700f4
:1004a000e284440054a0b4009905ba00e2844400f8
:1004b00054a0b4009906ba00e284440054a0b400e9
:1004c0000006eb00476fde00fd07b200ae018800ba
:1004d000636ce10003003a000ad801000000eb0061
:1004e0000e003700606ce10008003a00004deb00a0
:1004f0000a05e800020039003420ec000af0a000f0
:100500008b05e900f9ff3e00040037006168e10057
:10051000010032000086eb000b00070019c7ba008b
:100520000e04e0001905ba0003003a000a00e000da
:10053000dbff3a0000000600fe07b200ae028800b2
:100540008a047800f5ff37000cd0a300e20f4d00bd
:100550001c00390089027800354dba000a05e80010
:10056000020039003420ec000af0a0008b05e900fd
:100570000f003200254dba000a05e80002003900dc
:100580003420ec000af0a0008b05e90008003200de
:100590000c00e0000600320015cdba000a05e800a4
:1005a000020039003420ec000af0a0008b05e900bd
:1005b0008984e80054a0b4000b00e000e2ff3a0098
:1005c000000006009902ba00055d78008b05e9007d
:1005d000f7ff3200c82ade00055d78008b05e900d0
:1005e000f3ff32000c00e000f1ff320019ddba0029
:1005f000eeff37000000fa000108a9000080fa00b1
:10060000004006003600f800809fbe00829fbe00ba
:10061000849fbe00869fbe000000fa000068a9000b
:1006200058060700360807000080fa004f03be0096
:100630004f02be004f01be004f00be003600f90061
:10064000004006003600f800809fbe00829fbe007a
:10065000849fbe00869fbe000000fa000368a900c8
:10066000c0808000d180800061004000e0804800b0
:10067000c0808800d1808800ff0207000080fa0057
:100680004f03be004f02be004f01be004f00be0030
:100690003600f90000400600801f78000000fa00d4
:1006a00001a8a90000188000908a88001018800016
:1006b000a08a880020188000b08a88003018800046
:1006c000c08a880040188000d08a880010c0b3001b
:1006d0002bf0b7000080fa004f00780000400600c1
:1006e0003600f800809fbe00829fbe00849fbe003f
:1006f000869fbe000000fa000188a90001818000e9
:10070000f0808000808f5000020032009d070700bb
:10071000010037002270ef000080fa004f03be0096
:100720004f02be004f01be004f00be003600f90070
:10073000004006003600f800809fbe00829fbe0089
:10074000849fbe00869fbe000000fa000168a900d9
:1007500010118000640060000000e0000100320021
:100760002242a90010118000620060000000e00039
:10077000060032002222a900050037003011800057
:1007800000407800ee07070001003700000000007d
:1007900010118000610060000000e000f7ff3a00e7
:1007a0000080fa004f03be004f02be004f01be00a2
:1007b0004f00be003600f900004006000040da009d
:1007c0000000fe000000050003f0a200889fbe00ac
:1007d0008a9fbe008c1f78001b0107002201330096
:1007e0006450e1004f0032006420e100520032000a
:1007f00003826c0007003b000905d0000306d0000f
:10080000820f54000c065d00020039000200320025
:1008100089017800030678008582550004003d00b8
:100820000003fd008103fd008502ea008b85420084
:10083000840f720002003b0060001000e08018008e
:100840006011b8000005eb007a28e1000a003900c9
:1008500006007800c75ddd00f707b20087807500ed
:100860002d003700828171000a0178006105600067
:100870008180d1000080d3008502e900f9ff3b00b0
:10088000060440008784480002003b006004140016
:10089000e0841c000988a300070032008a817100ef
:1008a00082817100610164008904d1000884d30051
:1008b0008b05e800170037000978a30013003a0001
:1008c0000b00e000130034008b05e900080444002d
:1008d00089844c000a4474000978a3000d003a0092
:1008e0000b00e000070034008b05e9000804440019
:1008f00089844c0001003a000b0020000978a30015
:10090000f7ff32000001eb00020037008281710026
:100910000a017800910007000cf0a70001f0a00088
:10092000da0037006420e10002003a00838f6c0097
:10093000da0033000801be000200be00d300370019
:10094000889fbe008a9fbe008c1f7800be000700f3
:10095000c500330003866c006450e1002e003200b5
:100960006420e100330032006150e1002f003200ca
:100970006120e1003100320085855500eb07b000b1
:100980000900200008042000050037000804440086
:1009900089844c000a0031000603430087834b0022
:1009a0000001530081815b00f8ff33000203be00a9
:1009b0000800a0000804440089844c00f6ff3900b8
:1009c000c639dd00830173000100320013002000ee
:1009d0008904d1000884d3000998a30005003200df
:1009e0000800a7000300a0008904d1000884d300f8
:1009f0008b05e8008904d1000884d3000001eb00d6
:100a00000281d2005500070001f0a1000cf0a70000
:100a100001f0a0009d0037006420e1009f0032003b
:100a20000801be000200be00f7ff37006120e100b0
:100a30009a0032006000b800f3ff37000000200089
:100a400001f82700f0ff370014002000ca0037002b
:100a5000f4ff2f00c80037000001be00650007004a
:100a60000470a70003f0a1006509b1001600320070
:100a70000d0035006828e10006003500f0ff2f006a
:100a8000f1ff27000300e00013003b0001002800f5
:100a90000000050000004000818048008502e90058
:100aa000fcff3a0008003700f88f420002003c00cb
:100ab0008000eb00000005008100d1000080d30021
:100ac0008502e800fcff3a000300e00002003b0062
:100ad00060001000e0801800000006000001be0069
:100ae000440007000470a70003f0a10003f8a3006e
:100af00013003a006509b10010003200090035000a
:100b00006928e1000200350001002800000005000e
:100b100000004000818048008502e900fcff3a00a7
:100b200000000600f88f4200050035008100d1006a
:100b30000080d3008502e800fcff3a0000000600b8
:100b40008000eb00000005004f89de008201780084
:100b5000a40037006011b800b20037008100200007
:100b6000618055000b003d000b00200061fe2f004e
:100b70000100e1001d003400828171006101640008
:100b80008904d1000884d3000000e800faff3a008d
:100b9000710020006100640003007000020060002a
:100ba0000900320061044400e0844c000988a5007b
:100bb000050032008b05e8006808e10002003a00f9
:100bc0008904d1000884d300f20f20000258e1000c
:100bd00005003d00c75ddd00f907b20089807500a2
:100be00008007800000006000bf827008b00780052
:100bf00000000500c70ade00f107b200f50fb200e1
:100c000008003200e1cf4200020032000170a00073
:100c100024000500810f7000010032000408050067
:100c200044000500810f700002003a001400050026
:100c30008502e9000000400081c04800fcff3b0045
:100c40000170a000240005000004be00e9ff0700b9
:100c50000003be000405be000200be00e5ff070061
:100c6000844f7500000006000200be006450e100e1
:100c7000050036006420e100020036000968a30088
:100c800001003a000800be000160a0004f06780095
:100c90004f05be004f04be0000000600f0ff2f000d
:100ca000f1ff2700f9ff3700889fbe008a9fbe0032
:100cb0008c1f7800e4ff0700ebff330003866c0015
:100cc0006450e100240032006420e100270032007b
:100cd0006150e100220032006120e1002100320079
:100ce0008b854200eb07b1000134b800003ab80030
:100cf0000804420089844a00013ab8000030b80074
:100d00008880400009014a000400330000004000d0
:100d100081804800020149008b05e900c909dd0016
:100d2000830170000100320013002000c814de00af
:100d30004814dd004709de001200b200c808de00da
:100d40000884700085ff070001f0a1000cf0a700e7
:100d500001f0a000cdff37006120e100cfff32009d
:100d60000801be000200be00f7ff37006150e1003d
:100d7000fcff3a00c9ff3700889fbe008a9fbe0073
:100d8000841f7800b0ff07004f0078001100330087
:100d9000f0ff2f00838f6c0006003b000405650008
:100da0000a00a7000800370009f0a6001000200084
:100db00008003700820f5400838f5c000300390065
:100dc0001000200001003e000000200009f0a700f4
:100dd0000000ea004f05be004f04be000000e00026
:100de00000000600881f7800030478000300e0007c
:100df00007003d0060001000e0801800600119004d
:100e0000e081190002003b0001f02d0003003700d3
:100e10000400070008f0a70001f0a0004f047800cc
:100e200000000600889fbe008a9fbe0000827000fe
:100e30000402710004827100260032000004be002a
:100e40000200be006011b8006b092000950220006e
:100e50000182cf000a0039000541b1000082cf00b5
:100e6000070039000541b1000982cf0004003900b4
:100e70000541b1000882cf00010039000541b100f1
:100e800005425200120032000a003b0082817100cc
:100e9000610164008100d1000080d3008984d30007
:100ea0000884d3008b05e8000442e800f7ff3a000d
:100eb000070037000804440089844c000000480003
:100ec000818048008b05e9000442e900f9ff3a00ff
:100ed00022ff07004f05be004f04be0000000600c1
:020000040000fa
:100ee000686500006c6c00006f7700006f72000096
:080ef0006c640000000000002a
:020000040000fa
:100ef8000600fa00881f780088060700d906070050
:100f080000002000a137240000030700e6020700c4
:100f180000002000a147240008030700fb03070086
:100f2800bb0507004906070064cea90064eea900c6
:100f3800254ea900010037000000000000772800b6
:100f4800a100200051050700803e2000010020007c
:100f5800e4060700f0050700e14f5000f6ff3a00ed
:100f6800f1050700e8050700000f78001e80e8007b
:100f7800100078008000eb00f4fe070032332300f5
:100f88003305240046ff0700020020000358240010
:100f980069fe0700d2cc2c00c304240040ff0700e0
:100fa80010079800210798001e019000ae019000dc
:100fb80000002000812024005ffe070002002000be
:100fc800030a2400fefd0700f0898800018a8800d2
:100fd8009e00780064804000100078008000eb00dc
:100fe800dafe070032332300330524002cff070004
:100ff80002002000035824004ffe0700d2cc2c002a
:10100800c304240026ff0700100798002107980052
:101018001e019000ae0190000000200081202400f5
:1010280045fe070002002000030a2400e4fd070033
:10103800108a8800218a88009e0078006880400015
:10104800100078008000eb00c0fe07003233230058
:101058003305240012ff0700020020000358240073
:1010680035fe0700d2cc2c00c30424000cff070077
:1010780010079800210798001e019000ae0190000b
:1010880000002000812024002bfe07000200200021
:10109800030a2400cafd0700308a8800418a8800b4
:1010a8009e00780066804000100078008000eb0009
:1010b800a6fe07003233230033052400f8fe07009c
:1010c80002002000035824001bfe0700d2cc2c008d
:1010d800c3042400f2fe07001007980021079800b7
:1010e8001e019000ae019000000020008120240025
:1010f80011fe070002002000030a2400b0fd0700cb
:10110800508a8800618a88001e00780010007800e4
:101118008000eb008dfe07003233230033052400e6
:10112800dffe0700020020000358240002fe07002b
:10113800d2cc2c00c3042400d9fe07001007980065
:10114800210798001e019000ae01900000002000c9
:1011580081202400f8fd070002002000030a240073
:1011680097fd0700708a8800818a8800f0898000ce
:10117800018a800018c0b30002002000031f240069
:101188002ffe07000000e000010035000044eb00de
:101198000804e0000b003a00708a8000818a800011
:1011a80018c0b30002002000031f240024fe07001b
:1011b8000000e000010035000044eb000804e000f6
:1011c80002003200254ea80001003700254ea90074
:1011d800108a8000218a800018c0b3000200200015
:1011e800031f240016fe07000000e0000100350080
:1011f8000044eb000804e0000200320064eea8009e
:101208000100370064eea900308a8000418a80001e
:1012180018c0b30002002000031f240008fe0700c6
:101228000000e000010035000044eb000804e00085
:101238000b003a00508a8000618a800018c0b30011
:1012480002002000031f2400fdfd07000000e0004d
:10125800010035000044eb000804e0000200320001
:1012680064cea80035ff370064cea90033ff3700ed
:101278000000fa00881f780000d0bf000080fb0043
:10128800cf80de001201200003002000820f5000f2
:10129800838f58009d003e000006010011003700b2
:1012a8001a003700230037002d0037002e003700c2
:1012b8003700370038003700410037004200370058
:1012c8005300370054003700650037008f0037009f
:1012d8008e0037008d0037008c0037006200370021
:1012e800760037001830ef001a30ef0012002000a7
:1012f8006000b800cc0307000001eb006000b800f4
:10130800c903070010c0b30000f0b700c280800016
:10131800d3808000803e200001002000800f510013
:10132800818f59007c00360020c0b30000f0b70060
:101338007c003700608080007180800012002000ef
:10134800b903070060808000718080000001eb0015
:10135800b503070030c0b30000f0b70071003700d4
:10136800730007006f003700608080007180800084
:1013780012002000ac0307000001eb006000b80079
:10138800a903070050c0b30000f0b700650037009c
:101398006700070063003700120020006000b800f3
:1013a800a103070060808000718080000001eb00cd
:1013b8009d03070070c0b30000f0b7005900370064
:1013c8005b00070057003700808080009180800014
:1013d800020020000300240057fd0700120020002f
:1013e80091030700808080009180800001f0a200b6
:1013f80002002000030024004ffd07000001eb005d
:101408008903070090c0b30000f0b700450037001b
:1014180047000700430037008080800091808000eb
:1014280001f0a200020020000300240042fd070092
:10143800120020007c0307008080800091808000db
:1014480002002000030024003bfd07000001eb0020
:1014580075030700b0c0b30000f0b70031003700d3
:10146800330007002f0037008080800091808000c3
:1014780001f0a20002002000030024002efd070056
:10148800120020006803070080808000918080009f
:10149800020020000300240027fd07000001eb00e4
:1014a800610307006000b800108088002180880070
:1014b80010c1b30000f0b7001a0037001080800098
:1014c800218080000200200003f82300bdfc0700f3
:1014d8001080880021808800108080002180800092
:1014e80018c0b30002002000f332240056fd0700a4
:1014f8000000e00001003d000044eb000804e000ab
:10150800070032000a000700060037000070ef00ed
:101518000000000003003700000000000100370051
:10152800000000004f0478000080fa000000060068
:101538000200fa00881f78000040eb00004f780096
:10154800f4898000058a8000a0808000b180800036
:1015580018c0b3000001be000400be0038fd07003b
:101568000000e000010035000044eb000804e00042
:101578001d003200148a8000258a8000a080800027
:10158800b180800018c0b3000001be000400be0096
:101598002dfd07000000e00001003c000044eb00c6
:1015a8000804e00010003200348a8000458a800078
:1015b800a0808000b180800018c0b3000001be0088
:1015c8000400be0020fd07000000e00001003c0010
:1015d8000044eb000804e0000300320020c0b30020
:1015e800004f7800e7003700348a8000458a800081
:1015f800a0808000b180800018c0b3000001be0048
:101608000400be000efd07000000e00001003500e8
:101618000044eb000804e0001d003200148a80003a
:10162800258a8000a0808000b180800018c0b300a7
:101638000001be000400be0003fd07000000e0003a
:1016480001003c000044eb000804e00010003200f8
:10165800f4898000058a8000a0808000b180800025
:1016680018c0b3000001be000400be00f6fc07006d
:101678000000e00001003c000044eb000804e0002a
:101688000300320010c0b300004f7800bd003700df
:10169800148a8000258a8000a0808000b1808000a4
:1016a80018c0b3000001be000400be00e4fc07003f
:1016b8000000e000010035000044eb000804e000f1
:1016c8000300320030c0b300004f7800ad0037008f
:1016d800708a8000818a800018c0b3000200200050
:1016e800031b2400d6fc07000000e00001003500c1
:1016f8000044eb000804e0002a003200f48980006e
:10170800058a8000a0808000b180800018c0b300e6
:101718000001be000400be00cbfc07000000e00092
:1017280001003c000044eb000804e0001d0032000a
:10173800148a8000258a8000a0808000b180800003
:1017480018c0b3000001be000400be00befc0700c4
:101758000000e00001003c000044eb000804e00049
:1017680010003200348a8000458a8000a080800002
:10177800b180800018c0b3000001be000400be00a4
:10178800b1fc07000000e00001003c000044eb0051
:101798000804e0000300320040c0b300004f7800a6
:1017a80078003700508a8000618a800018c0b30032
:1017b80002002000031b2400a1fc07000000e00039
:1017c800010035000044eb000804e0002a00320064
:1017d800348a8000458a8000a0808000b180800023
:1017e80018c0b3000001be000400be0096fc07004c
:1017f8000000e00001003c000044eb000804e000a9
:101808001d003200148a8000258a8000a080800094
:10181800b180800018c0b3000001be000400be0003
:1018280089fc07000000e00001003c000044eb00d8
:101838000804e00010003200f4898000058a800066
:10184800a0808000b180800018c0b3000001be00f5
:101858000400be007cfc07000000e00001003c0022
:101868000044eb000804e0000300320050c0b3005d
:10187800004f780043003700f4898000058a800013
:10188800a0808000b180800018c0b3000001be00b5
:101898000400be006cfc07000000e00001003c00f2
:1018a8000044eb000804e00036003200748a80002f
:1018b800858a8000a0808000b180800018c0b300b5
:1018c8000001be000400be005ffc07000000e0004d
:1018d80001003c000044eb000804e000290032004d
:1018e800548a8000658a8000a0808000b1808000d2
:1018f80018c0b3000001be000400be0052fc07007f
:101908000000e00001003c000044eb000804e00097
:101918001c003200148a8000258a8000a080800084
:10192800b180800018c0b3000001be000400be00f2
:1019380045fc07000000e00001003c000044eb000b
:101948000804e0000f003200348a8000458a8000d5
:10195800a0808000b180800018c0b3000001be00e4
:101968000400be0038fc07000000e00001003c0055
:101978000044eb000804e000020032000040eb00e5
:10198800004f78001e4078000004e00003003a0091
:1019980020c0b30006f0b700370037001e407800bb
:1019a800e24f500003003a0080c0b30006f0b700d1
:1019b800310037001e407800e14f500003003a0024
:1019c800a0c0b30006f0b7002b0037001e40780017
:1019d800e34f500017003a0040808000518080009b
:1019e800020020000304240015fc07000000e000aa
:1019f80006003a0080c0b30006f0b7006000b800e7
:101a080040808800518088001b003700a0c0b300c8
:101a180006f0b7004080800051808000020020005e
:101a280003f8230067fb0700408088005180880086
:101a3800110037001e407800e44f500003003a00c0
:101a480040c0b30006f0b7000b0037001e40780016
:101a5800e54f500003003a0060c0b30006f0b7003d
:101a6800050037001e407800e74f500002003a009a
:101a780000c1b30006f0b70006d0bf008080fb00ad
:101a880000d0bf000080fb000000e900808f5000fc
:101a98000200320006d0bf0000f0b7004f04780003
:101aa8000080fa00000006000000fa0013e1a90017
:101ab80011e1a9001061a8001021a9008108800087
:101ac800f0fc2f0000806000800888000a21ef00e9
:101ad8000621ef00202620007008880000a02500bd
:101ae800600888002142800080ff2f00008060008d
:101af8000000a000204288000108a9002108a800d1
:101b080011e1a8000080fa00000006000400fa00b5
:101b1800008fbe0005e1a9000421a9001e0078007d
:101b28009e009000110007000068a9002068a80026
:101b380005e1a8000080fa00000006000400fa0091
:101b4800008fbe001fe1a9001e21a9001e00780019
:101b58009e009000790007000368a9002368a80088
:101b68001fe1a8000080fa00000006000400fa0047
:101b7800881f7800008fbe0021088000f0fc2f002d
:101b880000806000200888001e0178009e019000f7
:101b98000068290081c1240067fb070018c0b30052
:101ba80002f02f00f3772400a7fb07000000e000f5
:101bb80001003c000044eb000804e000540032003f
:101bc80021088000f0fc2f00008060000040a00089
:101bd800200888001e0178009e01900000682900f6
:101be80081c1240054fb07000200200003102400d8
:101bf80051fb070018c0b30002f02f00f377240050
:101c080091fb07000000e00001003c000044eb00ed
:101c18000804e0003200320021088000f0fc2f00a8
:101c2800008060000050a000200888001e01780095
:101c38009e0190000068290081c124003efb070036
:101c480002002000032824003bfb070018c0b30053
:101c580002f02f00f37724007bfb07000000e00070
:101c680001003c000044eb000804e00010003200d2
:101c7800210880000003200001007000200888006f
:101c88001e0178009e0190000068290081c124008f
:101c980029fb0700020020000338240026fb070068
:101ca8006bfb070000007800100888002000370050
:101cb8001e0178009e0190000068290081c124005f
:101cc8001dfb070002002000032824001afb070060
:101cd8005ffb070000007800100888001400370038
:101ce8001e0178009e0190000068290081c124002f
:101cf80011fb070002002000031024000efb070060
:101d080053fb07000000780010088800080037001f
:101d18001e0178009e0190000068290081c12400fe
:101d280005fb07004afb0700000078001008880040
:101d38004f0478000080fa00000006000400fa0052
:101d4800881f7800008fbe00f1088000f0fc2f008b
:101d580000806000f00888001e0178009e01900055
:101d68000068290081c12400f3fa070018c0b300f5
:101d780002f02f00f377240033fb07000000e00097
:101d880001003c000044eb000804e000540032006d
:101d9800f1088000f0fc2f00008060000040a000e7
:101da800f00888001e0178009e0190000068290054
:101db80081c12400e0fa070002002000031024007b
:101dc800ddfa070018c0b30002f02f00f3772400f3
:101dd8001dfb07000000e00001003c000044eb0090
:101de8000804e00032003200f1088000f0fc2f0007
:101df800008060000050a000f00888001e017800f4
:101e08009e0190000068290081c12400cafa0700d9
:101e18000200200003282400c7fa070018c0b300f6
:101e280002f02f00f377240007fb07000000e00012
:101e380001003c000044eb000804e0001000320000
:101e4800f10880000003200001007000f0088800fd
:101e58001e0178009e0190000068290081c12400bd
:101e6800b5fa07000200200003382400b2fa070080
:101e7800f7fa070000007800d00888002000370033
:101e88001e0178009e0190000068290081c124008d
:101e9800a9fa07000200200003282400a6fa070078
:101ea800ebfa070000007800d0088800140037001b
:101eb8001e0178009e0190000068290081c124005d
:101ec8009dfa070002002000031024009afa070078
:101ed800dffa070000007800d00888000800370003
:101ee8001e0178009e0190000068290081c124002d
:101ef80091fa0700d6fa070000007800d008880099
:101f08004f0478000080fa00000006000000fa0084
:101f18001160800080ff2f00008060001060880042
:101f280000fa20002060880023aca800238ca800b9
:101f380011618000f03f2f000080600000a0a00029
:101f4800106188003000200020618800c3aca80020
:101f5800c38ca80011668000f03f2f00008060004d
:101f680000a0a000106688003000200020668800cd
:101f780001eca8000080fa00000006000000fa004a
:101f8800889fbe008a9fbe00d4898000e5898000b2
:101f9800b0898000c189800018c0b3000001be006c
:101fa8000400be00a6fa07000000e00001003500aa
:101fb8000044eb000804e0000f003200b8898000fc
:101fc800c9898000da898000eb89800028d0bf00a9
:101fd8000080fb00cf80de00d9fa07000001be00b8
:101fe8000a00be00f7f907000801be00ce0007008e
:101ff800d0898800e1898800d4898000e58980003b
:10200800b0898000c189800018c0b3000001be00fb
:102018000400be008cfa07000000e00001003c004c
:102028000044eb000804e0000f003200b88980008b
:10203800c9898000da898000eb89800028d0bf0038
:102048000080fb00cf80de00bdfa07000001be0063
:102058000a00be00daf907000801be009a0007006e
:10206800d0898800e1898800d0898000e1898000d2
:1020780018c0b3006011b80073fa07000000e00050
:1020880001003c000044eb000804e00004003200ba
:10209800c3cca90024eea800c3eca80003003700b5
:1020a800c3eca90024cea800c3cca800d089800026
:1020b800e18980006e00070002002000032224004e
:1020c800f7fa070083fa07000000780030668800f6
:1020d80094898000a58980007089800081898000aa
:1020e80018c0b3000001be000400be0054fa070087
:1020f8000000e000010035000044eb000804e000a7
:102108000f00320078898000898980009a898000d0
:10211800ab89800028d0bf000080fb00cf80de00a4
:1021280087fa07000001be000a00be00a5f90700f3
:102138000801be007c00070090898800a1898800fa
:1021480094898000a5898000708980008189800039
:1021580018c0b3000001be000400be003afa070030
:102168000000e00001003c000044eb000804e0002f
:102178000f00320078898000898980009a89800060
:10218800ab89800028d0bf000080fb00cf80de0034
:102198006bfa07000001be000a00be0088f90700bc
:1021a8000801be004800070090898800a1898800be
:1021b80090898000a189800018c0b3006011b80020
:1021c80021fa07000000e00001003c000044eb0099
:1021d8000804e0000400320023cca90015eea80092
:1021e80023eca8000300370023eca90015cea800b3
:1021f80023cca80090898000a18980001c000700da
:102208000200200003222400a5fa070031fa070083
:1022180000007800306188004f05be004f04be0002
:102228000080fa00000006000600fa00008fbe00d9
:10223800220798002e0090000000e00005003a00f8
:102248001e0178009e0190007289880083898800a9
:10225800050037001e0078009e00900001f0a200e3
:10226800b0898800c18988000080fa000000060053
:102278000400fa00881f7800008fbe0018c0b30061
:102288006011b8001e0078009e009000eef907006b
:102298000000e00001003d000044eb000804e000fd
:1022a800030032001e0078009e00900003003700f3
:1022b8001e0078009e00900001f0a2004f047800f4
:1022c8000080fa00000006000800fa00881f780065
:1022d800008fbe00220798003307980018c0b3008b
:1022e8002e019000be0190001e0078009e00900014
:1022f800d5f907000000e00001003c000044eb00b5
:102308000804e000030032001e0078009e009000e0
:10231800020037002e009000be0090004f047800a5
:102328000080fa00000006000800fa00881f780004
:10233800008fbe00220798003307980018c0b3002a
:102348002e019000be0190001e0078009e009000b3
:10235800bbf907000000e000010035000044eb0075
:102368000804e000030032001e0078009e00900080
:10237800020037002e009000be0090004f04780045
:102388000080fa00000006000c00fa00881f7800a0
:10239800008fbe0022079800330798004407980072
:1023a8005507980018c0b3004e019000de01900058
:1023b8001e0078009e009000a3f907000000e000ce
:1023c80001003c000044eb000804e0000400320077
:1023d8004e019000de019000028fbe000e00370013
:1023e80018c0b3002e019000be0190001e007800b6
:1023f8009e00900092f907000000e00001003500ff
:102408000044eb000804e000030032002e019000b5
:10241800be019000028fbe001e0078009e00900052
:102428004f0478000080fa00000006000400fa005b
:10243800008fbe00b2fd2000930424001e00780027
:102448009e0090003cf9070002002000433324005e
:1024580013fa07000080fa00000006000400fa00e2
:10246800008fbe00b2fd2000930424001e007800f7
:102478009e0090000afa070002002000433324005f
:102488002df907000080fa00000006000600fa0097
:1024980010079800210798000040eb00004f7800d3
:1024a80054000700ae009000810f50001100340066
:1024b8000040eb00004f7800060037001e80fb004c
:1024c8009e00900000804000104078000b0007003c
:1024d8001e4fe8009e80fb002e009000808f500069
:1024e800f6ff35002e0007000004e00001003a0066
:1024f800220007000080fa00000006000200fa002f
:10250800004f7800f0808000c10221000080400068
:102518001e487800f08080000000e800f080880005
:10252800f1808000f0072000808f50000100340007
:102538001e30ef000080fa00000006000200fa00da
:1025480000818000c102210000804000104f780007
:10255800008180000000e80000818800018180007f
:10256800f0072000808f5000010034002030ef0079
:102578001e4078000080fa00000006000200fa0001
:1025880010c0b30022f0b700ecff0700004f78003e
:102598001e80fb00201188000080fa000000060061
:1025a8000000fa0022d0bf000080fa0000000600f8
:1025b8000200fa0001818000f0808000808f5000c6
:1025c80006003400f1808000008180000080500007
:1025d80001082000010f400003003700f18080004f
:1025e80000818000008f50001e0078000080fa00f3
:1025f800000006000200fa00edff070001082000b5
:10260800008f50001e0078000080fa0000000600cd
:102618000000fa0021e3a9002143a8000119800065
:10262800f0cf2f0000806000001988002043a90027
:1026380001198000000e20000100700000198800b8
:1026480011198000f0ff2100008060001019880037
:102658002343a80011198000f0cf2f0000806000ec
:10266800101988001119800030f82f0000806000d0
:102678000040a000101988002203a9002223a90005
:1026880025e3a900f0c0b30024e3b70021198000b6
:10269800f00f2e008080600000f020000100700024
:1026a800201988003303a9001e2ea8002e0ea800aa
:1026b8002f6ea8004feea8006f2ea80030c3a80008
:1026c8003163a8003063a8002e03a80031e3a800f6
:1026d8004119800000fc2f0000806000401988002c
:1026e80028e3a90001a8a90021a8a80021e3a800bf
:1026f8000080fa00000006000000fa002023a8006d
:102708000080fa00000006000000fa0020152100f1
:102718000080fa00000006000000fa002bd0bf007d
:102728000080fa00000006000000fa002b70ef009d
:102738000080fa00000006000200fa00004f78004e
:102748003b0007000000e000040034002081800006
:10275800c10a2100008040001e48780020818000c6
:102768000000e8002081880021818000f007200017
:10277800808f5000010034002430ef000080fa0000
:10278800000006000200fa0030818000c10a210022
:1027980000804000104f7800308180000000e80081
:1027a8003081880031818000f0072000808f500040
:1027b800010034002630ef001e4078000080fa0047
:1027c800000006000000fa002181800030818000ae
:1027d800808f50000200320010c0b30001003700a3
:1027e8000040eb000080fa00000006000200fa003a
:1027f8003181800020818000808f500006003400e5
:102808002181800030818000008050000108200074
:10281800010f4000030037002181800030818000d3
:10282800008f50001e0078000080fa0000000600ab
:102838000200fa00edff070001082000008f500099
:102848001e0078000080fa00000006000000fa0070
:102858002002a9000111800090ff2f000080600075
:102868000011880020a2a9002062a80050052000bd
:102878004011880023a2a90023e2a9000188a90029
:102888002188a80011118000f0f32f00008060005b
:10289800101188000168a9002168a80021e2a80099
:1028a8002342a8000080fa00000006000600fa0093
:1028b80010079800210798000040eb00004f7800af
:1028c8000040eb00004f78000e00370000000000c9
:1028d8001111800000202000008060000000e0004e
:1028e800fbff3a001e009000104078000080fb00bb
:1028f800201188001e0090000000e80010079800d2
:102908001e4fe8009e80fb002e009000808f500034
:10291800eeff35000080fa00000006000000fa0013
:10292800f0032000303a8800213a8000f0f32f00ad
:1029380000806000203a8800213a800000fe2f00c5
:10294800008060000000a000203a880012002000eb
:1029580080072000a10920003374200080497800f6
:102968008149780082497800103a80000001780097
:102978000200a000600420007105200023742000dc
:102988008049780081497800824978000000000079
:10299800113a8000000027008080600000002100bc
:1029a800808f5000faff3a0000000000113a8000c2
:1029b80000022000008060000000e000fbff320001
:0829c8000080fa000000060087
:020000040000fa
:1029d000001000000c000000800000000c1000003f
:1029e0000c000000820000000000c8004100000050
:1029f000c84100000004420018100000060000005a
:102a0000800000002c110000260000008000000063
:102a100028100000020000008200000005000000f5
:102a2000521100000a000000800000002a1000007f
:102a300002000000800000002c1000008000000058
:102a4000800000001e100000060000008000000052
:102a5000ac10000080000000800000002410000086
:0c2a6000040000008000000000000000e6
:020000040000fa
:102a6c000000fa000e2eef001e2eef002e2eef00af
:102a7c003e2eef004e2eef005e2eef006e2eef007e
:102a8c00214ea90060cea90060eea90011cea900cc
:102a9c0011eea90020cea90020eea900200ea8005e
:102aac00216ea800612ea800102ea80041eea800ef
:102abc002136800000f82f00008060008001b300f8
:102acc00203688001134800000fc2f00008060004c
:102adc000000a000103488000080fa0000000600fe
:020000040000fa
:102aec00f03fb1000180b10006003500ee03090093
:102afc0000000000403fb1000180b100fbff3d0031
:102b0c001000b000203fb00002003500008009002a
:082b1c000000000000000600ab
:020000040000fa
:02000004000af0
:04afe000cfff00009f
:020000040000fa
:02000004000af0
:04afe400ffff00006b
:020000040000fa
:02000004000af0
:04afe8007fff0000e7
:020000040000fa
:02000004000af0
:04afec005fff000003
:020000040000fa
:02000004000af0
:04aff00038ff000026
:020000040000fa
:02000004000af0
:04aff400ffff00005b
:00000001FF
