:020000040000fa
:080000000002040000000000f2
:020000040000fa
:040008007003000081
:020000040000fa
:04000c00700300007d
:020000040000fa
:040010007003000079
:020000040000fa
:040014007003000075
:020000040000fa
:040018007003000071
:020000040000fa
:04001c00700300006d
:020000040000fa
:040020007003000069
:020000040000fa
:040024007003000065
:020000040000fa
:040028007003000061
:020000040000fa
:04002c00700300005d
:020000040000fa
:040030007003000059
:020000040000fa
:0400340002030000c3
:020000040000fa
:040038007003000051
:020000040000fa
:04003c00700300004d
:020000040000fa
:040040007003000049
:020000040000fa
:040044007003000045
:020000040000fa
:04004800fa020000b8
:020000040000fa
:04004c00700300003d
:020000040000fa
:040050007003000039
:020000040000fa
:040054007003000035
:020000040000fa
:040058007003000031
:020000040000fa
:04005c004c03000051
:020000040000fa
:040060007003000029
:020000040000fa
:040064007003000025
:020000040000fa
:040068007003000021
:020000040000fa
:04006c00700300001d
:020000040000fa
:040070007003000019
:020000040000fa
:040074007003000015
:020000040000fa
:040078007003000011
:020000040000fa
:04007c00700300000d
:020000040000fa
:040080007003000009
:020000040000fa
:040084007003000005
:020000040000fa
:040088007003000001
:020000040000fa
:04008c0070030000fd
:020000040000fa
:0400900070030000f9
:020000040000fa
:040094002203000043
:020000040000fa
:0400980070030000f1
:020000040000fa
:04009c0070030000ed
:020000040000fa
:0400a00070030000e9
:020000040000fa
:0400a40070030000e5
:020000040000fa
:0400a80070030000e1
:020000040000fa
:0400ac0070030000dd
:020000040000fa
:0400b00070030000d9
:020000040000fa
:0400b40070030000d5
:020000040000fa
:0400b80070030000d1
:020000040000fa
:0400bc0070030000cd
:020000040000fa
:0400c00070030000c9
:020000040000fa
:0400c40070030000c5
:020000040000fa
:0400c80070030000c1
:020000040000fa
:0400cc0070030000bd
:020000040000fa
:0400d00070030000b9
:020000040000fa
:0400d40070030000b5
:020000040000fa
:0400d80070030000b1
:020000040000fa
:0400dc0070030000ad
:020000040000fa
:0400e00070030000a9
:020000040000fa
:0400e40070030000a5
:020000040000fa
:0400e80070030000a1
:020000040000fa
:0400ec00700300009d
:020000040000fa
:0400f0007003000099
:020000040000fa
:0400f4007003000095
:020000040000fa
:0400f8007003000091
:020000040000fa
:0400fc00700300008d
:020000040000fa
:040100007003000088
:020000040000fa
:040104007003000084
:020000040000fa
:040108007003000080
:020000040000fa
:04010c00700300007c
:020000040000fa
:040110007003000078
:020000040000fa
:040114007003000074
:020000040000fa
:040118007003000070
:020000040000fa
:04011c00700300006c
:020000040000fa
:040120007003000068
:020000040000fa
:040124007003000064
:020000040000fa
:040128007003000060
:020000040000fa
:04012c00700300005c
:020000040000fa
:040130007003000058
:020000040000fa
:040134007003000054
:020000040000fa
:040138007003000050
:020000040000fa
:04013c00700300004c
:020000040000fa
:040140007003000048
:020000040000fa
:040144007003000044
:020000040000fa
:040148007003000040
:020000040000fa
:04014c00700300003c
:020000040000fa
:040150007003000038
:020000040000fa
:040154007003000034
:020000040000fa
:040158007003000030
:020000040000fa
:04015c00700300002c
:020000040000fa
:040160007003000028
:020000040000fa
:040164007003000024
:020000040000fa
:040168007003000020
:020000040000fa
:04016c00700300001c
:020000040000fa
:040170007003000018
:020000040000fa
:040174007003000014
:020000040000fa
:040178007003000010
:020000040000fa
:04017c00700300000c
:020000040000fa
:040180007003000008
:020000040000fa
:040184007003000004
:020000040000fa
:040188007003000000
:020000040000fa
:04018c0070030000fc
:020000040000fa
:0401900070030000f8
:020000040000fa
:0401940070030000f4
:020000040000fa
:0401980070030000f0
:020000040000fa
:04019c0070030000ec
:020000040000fa
:0401a00070030000e8
:020000040000fa
:0401a40070030000e4
:020000040000fa
:0401a80070030000e0
:020000040000fa
:0401ac0070030000dc
:020000040000fa
:0401b00070030000d8
:020000040000fa
:0401b40070030000d4
:020000040000fa
:0401b80070030000d0
:020000040000fa
:0401bc0070030000cc
:020000040000fa
:0401c00070030000c8
:020000040000fa
:0401c40070030000c4
:020000040000fa
:0401c80070030000c0
:020000040000fa
:0401cc0070030000bc
:020000040000fa
:0401d00070030000b8
:020000040000fa
:0401d40070030000b4
:020000040000fa
:0401d80070030000b0
:020000040000fa
:0401dc0070030000ac
:020000040000fa
:0401e00070030000a8
:020000040000fa
:0401e40070030000a4
:020000040000fa
:0401e80070030000a0
:020000040000fa
:0401ec00700300009c
:020000040000fa
:0401f0007003000098
:020000040000fa
:0401f4007003000094
:020000040000fa
:0401f8007003000090
:020000040000fa
:0401fc00700300008c
:020000040000fa
:040200007003000087
:020000040000fa
:040204007003000083
:020000040000fa
:04020800700300007f
:020000040000fa
:04020c00700300007b
:020000040000fa
:040210007003000077
:020000040000fa
:040214007003000073
:020000040000fa
:04021800700300006f
:020000040000fa
:04021c00700300006b
:020000040000fa
:040220007003000067
:020000040000fa
:040224007003000063
:020000040000fa
:04022800700300005f
:020000040000fa
:04022c00700300005b
:020000040000fa
:040230007003000057
:020000040000fa
:040234007003000053
:020000040000fa
:04023800700300004f
:020000040000fa
:04023c00700300004b
:020000040000fa
:040240007003000047
:020000040000fa
:040244007003000043
:020000040000fa
:04024800700300003f
:020000040000fa
:04024c00700300003b
:020000040000fa
:040250007003000037
:020000040000fa
:040254007003000033
:020000040000fa
:04025800700300002f
:020000040000fa
:04025c00700300002b
:020000040000fa
:040260007003000027
:020000040000fa
:040264007003000023
:020000040000fa
:04026800700300001f
:020000040000fa
:04026c00700300001b
:020000040000fa
:040270007003000017
:020000040000fa
:040274007003000013
:020000040000fa
:04027800700300000f
:020000040000fa
:04027c00700300000b
:020000040000fa
:040280007003000007
:020000040000fa
:100400002f0521000eff2c000e01880000000000c7
:10041000000020000000e000020032000001200087
:100420002002880014000700af0007000000e00071
:1004300003003a00c02a210001002000020037001a
:100440000000200001002000810f70000100320038
:100450000f000700000020000000e0000200320052
:10046000000002000000000002070200000000007f
:100470000040da000000fe00200020000000e00044
:1004800002003200100020009001880000000600e9
:10049000a1028800800478000000eb001f003700f4
:1004a000e284440054a0b4009905ba00e2844400f8
:1004b00054a0b4009906ba00e284440054a0b400e9
:1004c0000006eb00476fde00fd07b200ae018800ba
:1004d000636ce10003003a000ad801000000eb0061
:1004e0000e003700606ce10008003a00004deb00a0
:1004f0000a05e800020039003420ec000af0a000f0
:100500008b05e900f9ff3e00040037006168e10057
:10051000010032000086eb000b00070019c7ba008b
:100520000e04e0001905ba0003003a000a00e000da
:10053000dbff3a0000000600fe07b200ae028800b2
:100540008a047800f5ff37000cd0a300e20f4d00bd
:100550001c00390089027800354dba000a05e80010
:10056000020039003420ec000af0a0008b05e900fd
:100570000f003200254dba000a05e80002003900dc
:100580003420ec000af0a0008b05e90008003200de
:100590000c00e0000600320015cdba000a05e800a4
:1005a000020039003420ec000af0a0008b05e900bd
:1005b0008984e80054a0b4000b00e000e2ff3a0098
:1005c000000006009902ba00055d78008b05e9007d
:1005d000f7ff3200c82ade00055d78008b05e900d0
:1005e000f3ff32000c00e000f1ff320019ddba0029
:1005f000eeff37000000fa000108a9000080fa00b1
:10060000004006003600f800809fbe00829fbe00ba
:10061000849fbe00869fbe000000fa000068a9000b
:1006200014060700910707000080fa004f03be0080
:100630004f02be004f01be004f00be003600f90061
:10064000004006003600f800809fbe00829fbe007a
:10065000849fbe00869fbe000000fa000368a900c8
:10066000c0808000d180800061004000e0804800b0
:10067000c0808800d1808800bb0207000080fa009b
:100680004f03be004f02be004f01be004f00be0030
:100690003600f90000400600801f78000000fa00d4
:1006a00001a8a9000018800040828800101880006e
:1006b00050828800201880006082880030188000f6
:1006c00070828800401880008082880010c0b300cb
:1006d00021f0b7000080fa004f00780000400600cb
:1006e0000040da000000fe000000050003f0a20058
:1006f000889fbe008a9fbe008c1f78001b010700e8
:10070000220133006450e1004f0032006420e10018
:100710005200320003826c0007003b000905d00044
:100720000306d000820f54000c065d000200390061
:1007300002003200890178000306780085825500a6
:1007400004003d000003fd008103fd008502ea0076
:100750008b854200840f720002003b006000100095
:10076000e08018006011b8000005eb007a28e10075
:100770000a00390006007800c75ddd00f707b20007
:10078000878075002d003700828171000a01780092
:10079000610560008180d1000080d3008502e900fe
:1007a000f9ff3b00060440008784480002003b003c
:1007b00060041400e0841c000988a30007003200d4
:1007c0008a81710082817100610164008904d10015
:1007d0000884d3008b05e800170037000978a300d0
:1007e00013003a000b00e000130034008b05e90011
:1007f0000804440089844c000a4474000978a3006a
:100800000d003a000b00e000070034008b05e90002
:100810000804440089844c0001003a000b002000c9
:100820000978a300f7ff32000001eb000200370057
:10083000828171000a017800910007000cf0a70086
:1008400001f0a000da0037006420e10002003a0065
:10085000838f6c00da0033000801be000200be0086
:10086000d3003700889fbe008a9fbe008c1f78008f
:10087000be000700c500330003866c006450e10031
:100880002e0032006420e100330032006150e100ac
:100890002f0032006120e1003100320085855500d3
:1008a000eb07b00009002000080420000500370015
:1008b0000804440089844c000a0031000603430008
:1008c00087834b000001530081815b00f8ff3300f8
:1008d0000203be000800a0000804440089844c0004
:1008e000f6ff3900c639dd008301730001003200d4
:1008f000130020008904d1000884d3000998a300c4
:10090000050032000800a7000300a0008904d10000
:100910000884d3008b05e8008904d1000884d30043
:100920000001eb000281d2005500070001f0a10098
:100930000cf0a70001f0a0009d0037006420e1004a
:100940009f0032000801be000200be00f7ff370022
:100950006120e1009a0032006000b800f3ff370028
:100960000000200001f82700f0ff370014002000ed
:10097000ca003700f4ff2f00c80037000001be0096
:10098000650007000470a70003f0a1006509b1002d
:10099000160032000d0035006828e1000600350021
:1009a000f0ff2f00f1ff27000300e00013003b00e1
:1009b0000100280000000500000040008180480080
:1009c0008502e900fcff3a0008003700f88f42007a
:1009d00002003c008000eb00000005008100d10017
:1009e0000080d3008502e800fcff3a000300e0002d
:1009f00002003b0060001000e080180000000600cc
:100a00000001be00440007000470a70003f0a1002d
:100a100003f8a30013003a006509b100100032008a
:100a2000090035006928e1000200350001002800b6
:100a30000000050000004000818048008502e900b8
:100a4000fcff3a0000000600f88f42000500350068
:100a50008100d1000080d3008502e800fcff3a004d
:100a6000000006008000eb00000005004f89de005a
:100a700082017800a40037006011b800b20037008e
:100a800081002000618055000b003d000b0020001c
:100a900061fe2f000100e1001d0034008281710021
:100aa000610164008904d1000884d3000000e800db
:100ab000faff3a007100200061006400030070003a
:100ac000020060000900320061044400e0844c0030
:100ad0000988a500050032008b05e8006808e100e0
:100ae00002003a008904d1000884d300f20f2000ec
:100af0000258e10005003d00c75ddd00f907b200c6
:100b00008980750008007800000006000bf82700b7
:100b10008b00780000000500c70ade00f107b20074
:100b2000f50fb20008003200e1cf420002003200af
:100b30000170a00024000500810f70000100320048
:100b40000408050044000500810f700002003a000f
:100b5000140005008502e9000000400081c0480043
:100b6000fcff3b000170a000240005000004be0053
:100b7000e9ff07000003be000405be000200be003e
:100b8000e5ff0700844f7500000006000200be006c
:100b90006450e100050036006420e10002003600e8
:100ba0000968a30001003a000800be000160a0002f
:100bb0004f0678004f05be004f04be00000006003f
:100bc000f0ff2f00f1ff2700f9ff3700889fbe00dc
:100bd0008a9fbe008c1f7800e4ff0700ebff330004
:100be00003866c006450e100240032006420e100c0
:100bf000270032006150e100220032006120e10054
:100c0000210032008b854200eb07b1000134b800af
:100c1000003ab8000804420089844a00013ab8004a
:100c20000030b8008880400009014a000400330009
:100c30000000400081804800020149008b05e90066
:100c4000c909dd008301700001003200130020009b
:100c5000c814de004814dd004709de001200b200af
:100c6000c808de000884700085ff070001f0a100bd
:100c70000cf0a70001f0a000cdff37006120e100db
:100c8000cfff32000801be000200be00f7ff3700b0
:100c90006150e100fcff3a00c9ff3700889fbe00a9
:100ca0008a9fbe00841f7800b0ff07004f007800c5
:100cb00011003300f0ff2f00838f6c0006003b0013
:100cc000040565000a00a7000800370009f0a60027
:100cd0001000200008003700820f5400838f5c0052
:100ce000030039001000200001003e000000200039
:100cf00009f0a7000000ea004f05be004f04be0047
:100d00000000e00000000600881f7800030478005f
:100d10000300e00007003d0060001000e0801800c4
:100d200060011900e081190002003b0001f02d0074
:100d3000030037000400070008f0a70001f0a0003e
:100d40004f04780000000600889fbe008a9fbe0006
:100d500000827000040271000482710026003200db
:100d60000004be000200be006011b8006b09200044
:100d7000950220000182cf000a0039000541b10030
:100d80000082cf00070039000541b1000982cf0081
:100d9000040039000541b1000882cf00010039008c
:100da0000541b10005425200120032000a003b002a
:100db00082817100610164008100d1000080d30054
:100dc0008984d3000884d3008b05e8000442e8003e
:100dd000f7ff3a00070037000804440089844c00fc
:100de00000004800818048008b05e9000442e900ca
:100df000f9ff3a0022ff07004f05be004f04be0076
:040e000000000600e8
:020000040000fa
:100e04000600fa00881f7800a7050700ec05070014
:100e140000002000a1372400f9020700df020700c8
:100e240000002000a147240001030700f403070089
:100e34005305070064cea90064eea900254ea9005d
:100e440001003700000000008f050700e14f50004b
:100e5400fcff3a009005070087050700000f7800a3
:100e64001e80e800100078008000eb0001ff0700fe
:100e7400323323003305240053ff0700020020000f
:100e84000358240076fe0700d2cc2c00c3042400af
:100e94004dff070010079800210798001e019000dd
:100ea400ae01900000002000812024006cfe0700a9
:100eb40002002000030a24000bfe0700a081880022
:100ec400b18188009e0078006480400010007800a2
:100ed4008000eb00e7fe07003233230033052400d3
:100ee40039ff070002002000035824005cfe0700bd
:100ef400d2cc2c00c304240033ff07001007980051
:100f0400210798001e019000ae019000000020000f
:100f14008120240052fe070002002000030a24005e
:100f2400f1fd0700c0818800d18188009e0078000f
:100f340068804000100078008000eb00cdfe0700c0
:100f440032332300330524001fff07000200200072
:100f54000358240042fe0700d2cc2c00c304240012
:100f640019ff070010079800210798001e01900040
:100f7400ae019000000020008120240038fe07000c
:100f840002002000030a2400d7fd0700e081880046
:100f9400f18188009e00780066804000100078008f
:100fa4008000eb00b3fe0700323323003305240036
:100fb40005ff0700020020000358240028fe070054
:100fc400d2cc2c00c3042400fffe070010079800b5
:100fd400210798001e019000ae019000000020003f
:100fe400812024001efe070002002000030a2400c2
:100ff400bdfd070000828800118288001e00780071
:10100400100078008000eb009afe070032332300c2
:1010140033052400ecfe07000200200003582400de
:101024000ffe0700d2cc2c00c3042400e6fe070008
:1010340010079800210798001e019000ae0190004f
:10104400000020008120240005fe0700020020008b
:10105400030a2400a4fd070020828800318288004e
:10106400a0818000b181800018c0b300020020007c
:10107400031f24003cfe07000000e00001003500cf
:101084000044eb000804e0000b003a0020828000da
:101094003182800018c0b30002002000031f240026
:1010a40031fe07000000e000010035000044eb00c1
:1010b4000804e00002003200254ea80001003700b9
:1010c400254ea900c0818000d181800018c0b300e2
:1010d40002002000031f240023fe07000000e0009c
:1010e400010035000044eb000804e0000200320077
:1010f40064eea8000100370064eea900e0818000de
:10110400f181800018c0b30002002000031f2400f6
:1011140015fe07000000e000010035000044eb006c
:101124000804e0000b003a00008280001182800075
:1011340018c0b30002002000031f24000afe0700a9
:101144000000e000010035000044eb000804e0006a
:101154000200320064cea8003bff370064cea90031
:1011640039ff37000000fa00881f780000d0bf0064
:101174000080fb00cf80de0012012000030020006d
:10118400820f5000838f58009d003e00000601002e
:10119400110037001a003700230037002d003700f4
:1011a4002e00370037003700380037004100370081
:1011b4004200370053003700540037006500370001
:1011c4008f0037008e0037008d0037008c00370009
:1011d40062003700760037001830ef001a30ef0055
:1011e400120020006000b800cc0307000001eb00ef
:1011f4006000b800c903070010c0b30000f0b700d6
:10120400c2808000d3808000803e20000100200046
:10121400800f5100818f59007c00360020c0b3003c
:1012240000f0b7007c00370060808000718080008f
:1012340012002000b90307006080800071808000e4
:101244000001eb00b503070030c0b30000f0b700a5
:1012540071003700730007006f0037006080800062
:101264007180800012002000ac0307000001eb0035
:101274006000b800a903070050c0b30000f0b70035
:101284006500370067000700630037001200200084
:101294006000b800a10307006080800071808000b6
:1012a4000001eb009d03070070c0b30000f0b7001d
:1012b400590037005b00070057003700808080002a
:1012c40091808000020020000300240064fd0700d8
:1012d400120020009103070080808000918080002c
:1012e40001f0a20002002000030024005cfd0700be
:1012f4000001eb008903070090c0b30000f0b700c1
:101304004500370047000700430037008080800015
:101314009180800001f0a20002002000030024005c
:101324004ffd0700120020007c030700808080002e
:1013340091808000020020000300240048fd070083
:101344000001eb0075030700b0c0b30000f0b70064
:1013540031003700330007002f0037008080800001
:101364009180800001f0a20002002000030024000c
:101374003bfd070012002000680307008080800006
:1013840091808000020020000300240034fd070047
:101394000001eb00610307006000b80010808800c2
:1013a4002180880010c1b30000f0b7001a00370094
:1013b40010808000218080000200200003f82300b8
:1013c400cafc0700108088002180880010808000fb
:1013d4002180800018c0b30002002000f3322400f2
:1013e40063fd07000000e00001003d000044eb0045
:1013f4000804e000070032000a0007000600370076
:101404000070ef000000000003003700000000003f
:1014140001003700000000004f0478000080fa004b
:10142400000006000200fa00881f78000040eb006c
:10143400004f7800a4818000b5818000a0808000e6
:10144400b180800018c0b3000001be000400be00db
:1014540045fd07000000e000010035000044eb00fa
:101464000804e0001d003200c4818000d5818000a2
:10147400a0808000b180800018c0b3000001be00cd
:101484000400be003afd07000000e00001003c003b
:101494000044eb000804e00010003200e481800006
:1014a400f5818000a0808000b180800018c0b30066
:1014b4000001be000400be002dfd07000000e00096
:1014c40001003c000044eb000804e000030032008b
:1014d40020c0b300004f7800e7003700e4818000ab
:1014e400f5818000a0808000b180800018c0b30026
:1014f4000001be000400be001bfd07000000e00068
:10150400010035000044eb000804e0001d00320037
:10151400c4818000d5818000a0808000b1808000db
:1015240018c0b3000001be000400be0010fd070097
:101534000000e00001003c000044eb000804e0006f
:1015440010003200a4818000b5818000a08080005a
:10155400b180800018c0b3000001be000400be00ca
:1015640003fd07000000e00001003c000044eb0024
:101574000804e0000300320010c0b300004f7800fc
:10158400bd003700c4818000d5818000a080800028
:10159400b180800018c0b3000001be000400be008a
:1015a400f1fc07000000e000010035000044eb00fe
:1015b4000804e0000300320030c0b300004f78009c
:1015c400ad003700208280003182800018c0b30053
:1015d40002002000031b2400e3fc07000000e000dd
:1015e400010035000044eb000804e0002a0032004a
:1015f400a4818000b5818000a0808000b18080003b
:1016040018c0b3000001be000400be00d8fc0700ef
:101614000000e00001003c000044eb000804e0008e
:101624001d003200c4818000d5818000a08080002c
:10163400b180800018c0b3000001be000400be00e9
:10164400cbfc07000000e00001003c000044eb007c
:101654000804e00010003200e4818000f58180007d
:10166400a0808000b180800018c0b3000001be00db
:101674000400be00befc07000000e00001003c00c6
:101684000044eb000804e0000300320040c0b30053
:10169400004f7800780037000082800011828000bb
:1016a40018c0b30002002000031b2400aefc070096
:1016b4000000e000010035000044eb000804e000f5
:1016c4002a003200e4818000f5818000a08080003f
:1016d400b180800018c0b3000001be000400be0049
:1016e400a3fc07000000e00001003c000044eb0004
:1016f4000804e0001d003200c4818000d581800010
:10170400a0808000b180800018c0b3000001be003a
:101714000400be0096fc07000000e00001003c004d
:101724000044eb000804e00010003200a4818000b3
:10173400b5818000a0808000b180800018c0b30013
:101744000001be000400be0089fc07000000e000a8
:1017540001003c000044eb000804e00003003200f8
:1017640050c0b300004f780043003700a4818000cc
:10177400b5818000a0808000b180800018c0b300d3
:101784000001be000400be0079fc07000000e00078
:1017940001003c000044eb000804e0003600320085
:1017a4002482800035828000a0808000b180800087
:1017b40018c0b3000001be000400be006cfc0700aa
:1017c4000000e00001003c000044eb000804e000dd
:1017d400290032000482800015828000a0808000ed
:1017e400b180800018c0b3000001be000400be0038
:1017f4005ffc07000000e00001003c000044eb0037
:101804000804e0001c003200c4818000d5818000ff
:10181400a0808000b180800018c0b3000001be0029
:101824000400be0052fc07000000e00001003c0080
:101834000044eb000804e0000f003200e481800063
:10184400f5818000a0808000b180800018c0b300c2
:101854000001be000400be0045fc07000000e000db
:1018640001003c000044eb000804e00002003200e8
:101874000040eb00004f78001e4078000004e000b8
:1018840003003a0020c0b30006f0b7003700370069
:101894001e407800e24f500003003a0080c0b300bd
:1018a40006f0b700310037001e407800e14f5000c9
:1018b40003003a00a0c0b30006f0b7002b003700c5
:1018c4001e407800e34f500017003a00408080002b
:1018d40051808000020020000304240022fc070041
:1018e4000000e00006003a0080c0b30006f0b70034
:1018f4006000b80040808800518088001b003700d9
:10190400a0c0b30006f0b700408080005180800082
:101914000200200003f8230074fb070040808800c5
:1019240051808800110037001e407800e44f5000b9
:1019340003003a0040c0b30006f0b7000b003700c4
:101944001e407800e54f500003003a0060c0b30029
:1019540006f0b700050037001e407800e74f50003e
:1019640002003a0000c1b30006f0b70006d0bf0081
:101974008080fb0000d0bf000080fb000000e90075
:10198400808f50000200320006d0bf0000f0b70084
:101994004f0478000080fa00000006000000fa00fe
:1019a40013e1a90011e1a9001061a8001021a90008
:1019b40081088000f0fc2f0000806000800888000f
:1019c4000a21ef000621ef0020262000700888007d
:1019d40000a02500600888002142800080ff2f00bd
:1019e400008060000000a000204288000108a900d7
:1019f4002108a80011e1a8000080fa0000000600f8
:101a04000400fa00008fbe0005e1a9000421a9002a
:101a14001e0078009e009000110007000068a900d5
:101a24002068a80005e1a8000080fa000000060074
:101a34000400fa00008fbe001fe1a9001e21a900c6
:101a44001e0078009e009000790007000368a9003a
:101a54002368a8001fe1a8000080fa000000060027
:101a64000400fa00881f7800008fbe00210880005f
:101a7400f0fc2f0000806000200888001e01780020
:101a84009e0190000068290081c1240074fb0700b6
:101a940018c0b30002f02f00f3772400b4fb070052
:101aa4000000e00001003c000044eb000804e000fa
:101ab4005400320021088000f0fc2f0000806000f8
:101ac4000040a000200888001e0178009e019000bc
:101ad4000068290081c1240061fb07000200200086
:101ae400031024005efb070018c0b30002f02f00af
:101af400f37724009efb07000000e00001003c0097
:101b04000044eb000804e0003200320021088000a9
:101b1400f0fc2f00008060000050a0002008880026
:101b24001e0178009e0190000068290081c12400f4
:101b34004bfb0700020020000328240048fb070099
:101b440018c0b30002f02f00f377240088fb0700cd
:101b54000000e00001003c000044eb000804e00049
:101b640010003200210880000003200001007000f2
:101b7400200888001e0178009e019000006829005a
:101b840081c1240036fb0700020020000338240032
:101b940033fb070078fb070000007800100888007a
:101ba400200037001e0178009e0190000068290083
:101bb40081c124002afb070002002000032824001e
:101bc40027fb07006cfb0700000078001008880062
:101bd400140037001e0178009e019000006829005f
:101be40081c124001efb0700020020000310240012
:101bf4001bfb070060fb070000007800100888004a
:101c0400080037001e0178009e019000006829003a
:101c140081c1240012fb070057fb07000000780075
:101c2400100888004f0478000080fa0000000600c5
:101c34000400fa00881f7800008fbe00f1088000bd
:101c4400f0fc2f0000806000f00888001e0178007e
:101c54009e0190000068290081c1240000fb070058
:101c640018c0b30002f02f00f377240040fb0700f4
:101c74000000e00001003c000044eb000804e00028
:101c840054003200f1088000f0fc2f000080600056
:101c94000040a000f00888001e0178009e0190001a
:101ca4000068290081c12400edfa07000200200029
:101cb40003102400eafa070018c0b30002f02f0052
:101cc400f37724002afb07000000e00001003c0039
:101cd4000044eb000804e00032003200f108800008
:101ce400f0fc2f00008060000050a000f008880085
:101cf4001e0178009e0190000068290081c1240023
:101d0400d7fa07000200200003282400d4fa0700b1
:101d140018c0b30002f02f00f377240014fb07006f
:101d24000000e00001003c000044eb000804e00077
:101d340010003200f1088000000320000100700050
:101d4400f00888001e0178009e01900000682900b8
:101d540081c12400c2fa07000200200003382400d5
:101d6400bffa070004fb070000007800d0088800d1
:101d7400200037001e0178009e01900000682900b1
:101d840081c12400b6fa07000200200003282400c1
:101d9400b3fa0700f8fa070000007800d0088800ba
:101da400140037001e0178009e019000006829008d
:101db40081c12400aafa07000200200003102400b5
:101dc400a7fa0700ecfa070000007800d0088800a2
:101dd400080037001e0178009e0190000068290069
:101de40081c124009efa0700e3fa0700000078008e
:101df400d00888004f0478000080fa000000060034
:101e04000000fa001160800080ff2f000080600055
:101e14001060880000fa20002060880023aca8002d
:101e2400238ca80011618000f03f2f000080600027
:101e340000a0a0001061880030002000206188000c
:101e4400c3aca800c38ca80011668000f03f2f002b
:101e54000080600000a0a000106688003000200010
:101e64002066880001eca8000080fa00000006004b
:101e74000000fa00889fbe008a9fbe008481800013
:101e840095818000608180007181800018c0b3005a
:101e94000001be000400be00b3fa07000000e00029
:101ea400010035000044eb000804e0000f0032009c
:101eb40068818000798180008a8180009b81800014
:101ec4001ed0bf000080fb00cf80de00e6fa0700d2
:101ed4000001be000a00be0004fa07000801be00ab
:101ee400ce00070080818800918188008481800071
:101ef40095818000608180007181800018c0b300ea
:101f04000001be000400be0099fa07000000e000d2
:101f140001003c000044eb000804e0000f00320024
:101f240068818000798180008a8180009b818000a3
:101f34001ed0bf000080fb00cf80de00cafa07007d
:101f44000001be000a00be00e7f907000801be0058
:101f54009a00070080818800918188008081800038
:101f64009181800018c0b3006011b80080fa0700a6
:101f74000000e00001003c000044eb000804e00025
:101f840004003200c3cca90024eea800c3eca800ce
:101f940003003700c3eca90024cea800c3cca800da
:101fa40080818000918180006e0007000200200083
:101fb4000322240004fb070090fa070000007800c5
:101fc4003066880044818000558180002081800033
:101fd4003181800018c0b3000001be000400be00bf
:101fe40061fa07000000e000010035000044eb0046
:101ff4000804e0000f00320028818000398180004d
:102004004a8180005b8180001ed0bf000080fb00fd
:10201400cf80de0094fa07000001be000a00be0073
:10202400b2f907000801be007c0007004081880067
:102034005181880044818000558180002081800086
:102044003181800018c0b3000001be000400be004e
:1020540047fa07000000e00001003c000044eb00e8
:102064000804e0000f0032002881800039818000dc
:102074004a8180005b8180001ed0bf000080fb008d
:10208400cf80de0078fa07000001be000a00be001f
:1020940095f907000801be00480007004081880048
:1020a40051818800408180005181800018c0b300b4
:1020b4006011b8002efa07000000e00001003c00a7
:1020c4000044eb000804e0000400320023cca90023
:1020d40015eea80023eca8000300370023eca900a8
:1020e40015cea80023cca800408180005181800037
:1020f4001c0007000200200003222400b2fa07009b
:102104003efa070000007800306188004f05be00e9
:102114004f04be000080fa00000006000600fa002a
:10212400008fbe00220798002e0090000000e000ff
:1021340005003a001e0178009e019000228188006b
:1021440033818800050037001e0078009e0090004f
:1021540001f0a20060818800718188000080fa008b
:10216400000006000400fa00881f7800008fbe00fb
:1021740018c0b3006011b8001e0078009e009000e3
:10218400fbf907000000e00001003d000044eb0003
:102194000804e000030032001e0078009e00900056
:1021a400030037001e0078009e00900001f0a2009a
:1021b4004f0478000080fa00000006000800fa00ce
:1021c400881f7800008fbe0022079800330798000c
:1021d40018c0b3002e019000be0190001e007800cc
:1021e4009e009000e2f907000000e00001003c00be
:1021f4000044eb000804e000030032001e007800f5
:102204009e009000020037002e009000be00900057
:102214004f0478000080fa00000006000800fa006d
:10222400881f7800008fbe002207980033079800ab
:1022340018c0b3002e019000be0190001e0078006b
:102244009e009000c8f907000000e000010035007e
:102254000044eb000804e000030032001e00780094
:102264009e009000020037002e009000be009000f7
:102274004f0478000080fa00000006000c00fa0009
:10228400881f7800008fbe0022079800330798004b
:10229400440798005507980018c0b3004e019000f9
:1022a400de0190001e0078009e009000b0f9070047
:1022b4000000e00001003c000044eb000804e000e2
:1022c400040032004e019000de019000028fbe0037
:1022d4000e00370018c0b3002e019000be0190001c
:1022e4001e0078009e0090009ff907000000e000a7
:1022f400010035000044eb000804e0000300320054
:102304002e019000be019000028fbe001e007800d6
:102314009e0090004f0478000080fa000000060040
:102324000400fa00008fbe00b2fd200093042400d4
:102334001e0078009e00900049f90700020020006a
:102344004333240020fa07000080fa00000006004e
:102354000400fa00008fbe00b2fd200093042400a4
:102364001e0078009e00900017fa0700020020006b
:10237400433324003af907000080fa000000060005
:102384000000fa0021e3a9002143a80001198000fc
:10239400f0cf2f0000806000001988002043a900be
:1023a40001198000000e200001007000001988004f
:1023b40011198000f0ff21000080600010198800ce
:1023c4002343a80011198000f0cf2f000080600083
:1023d400101988001119800030f82f000080600067
:1023e4000040a000101988002203a9002223a9009c
:1023f40025e3a900f0c0b30024e3b700211980004d
:10240400f00f2e008080600000f0200001007000ba
:10241400201988003303a9001e2ea8002e0ea80040
:102424002f6ea8004feea8006f2ea80030c3a8009e
:102434003163a8003063a8002e03a80031e3a8008c
:102444004119800000fc2f000080600040198800c2
:1024540028e3a90001a8a90021a8a80021e3a80055
:102464000080fa00000006000000fa002023a80003
:102474000080fa00000006000000fa008004210039
:102484000080fa00000006000000fa0021d0bf001e
:102494000080fa00000006000000fa002170ef003e
:1024a4000080fa00000006000000fa00f00320009b
:1024b400303a8800213a8000f0f32f000080600059
:1024c400203a8800213a800000fe2f00008060003e
:1024d4000000a000203a880012002000800720009d
:1024e400a1092000337420008049780081497800d4
:1024f40082497800103a8000000178000200a000b0
:1025040060042000710520002374200080497800b5
:10251400814978008249780000000000113a800067
:10252400000027008080600000002100808f5000a0
:10253400faff3a0000000000113a80000002200077
:10254400008060000000e000fbff32000080fa0021
:04255400000006007d
:020000040000fa
:10255800001000000c000000800000000c100000bb
:102568000c000000820000000000c80041000000cc
:10257800c8410000000442001810000006000000d6
:1025880080000000221000002600000080000000eb
:102598001e1000000200000082000000050000007c
:1025a800481000000a000000800000002010000011
:0c25b80002000000800000000000000095
:020000040000fa
:1025c4000000fa000e2eef001e2eef002e2eef005c
:1025d4003e2eef004e2eef005e2eef006e2eef002b
:1025e400214ea90060cea90060eea90011cea90079
:1025f40011eea90020cea90020eea900200ea8000b
:10260400216ea800612ea800102ea80041eea8009b
:082614000080fa00000006003e
:020000040000fa
:02000004000af0
:04afe000cfff00009f
:020000040000fa
:02000004000af0
:04afe400ffff00006b
:020000040000fa
:02000004000af0
:04afe8007fff0000e7
:020000040000fa
:02000004000af0
:04afec005fff000003
:020000040000fa
:02000004000af0
:04aff00038ff000026
:020000040000fa
:02000004000af0
:04aff400ffff00005b
:00000001FF
